{
  "contractName": "MarketPlace",
  "abi": [
    {
      "inputs": [
        {
          "internalType": "uint8",
          "name": "_marketFee",
          "type": "uint8"
        },
        {
          "internalType": "address",
          "name": "_marketFeeTaker",
          "type": "address"
        },
        {
          "internalType": "address[]",
          "name": "_tokens",
          "type": "address[]"
        },
        {
          "internalType": "address",
          "name": "_factory",
          "type": "address"
        }
      ],
      "stateMutability": "nonpayable",
      "type": "constructor"
    },
    {
      "inputs": [],
      "name": "DelegateCallError",
      "type": "error"
    },
    {
      "inputs": [],
      "name": "ExternalCallError",
      "type": "error"
    },
    {
      "anonymous": false,
      "inputs": [
        {
          "indexed": true,
          "internalType": "address",
          "name": "seller",
          "type": "address"
        },
        {
          "indexed": true,
          "internalType": "address",
          "name": "buyer",
          "type": "address"
        },
        {
          "indexed": true,
          "internalType": "uint256",
          "name": "orderId",
          "type": "uint256"
        },
        {
          "indexed": false,
          "internalType": "uint256",
          "name": "bidId",
          "type": "uint256"
        },
        {
          "indexed": false,
          "internalType": "uint256",
          "name": "time",
          "type": "uint256"
        }
      ],
      "name": "BidAccepted",
      "type": "event"
    },
    {
      "anonymous": false,
      "inputs": [
        {
          "indexed": true,
          "internalType": "address",
          "name": "bidder",
          "type": "address"
        },
        {
          "indexed": true,
          "internalType": "uint256",
          "name": "bidId",
          "type": "uint256"
        },
        {
          "indexed": true,
          "internalType": "uint256",
          "name": "orderId",
          "type": "uint256"
        },
        {
          "indexed": false,
          "internalType": "uint256",
          "name": "time",
          "type": "uint256"
        }
      ],
      "name": "BidCanceled",
      "type": "event"
    },
    {
      "anonymous": false,
      "inputs": [
        {
          "indexed": true,
          "internalType": "address",
          "name": "bidder",
          "type": "address"
        },
        {
          "indexed": true,
          "internalType": "address",
          "name": "contractAddr",
          "type": "address"
        },
        {
          "indexed": true,
          "internalType": "uint256",
          "name": "nftId",
          "type": "uint256"
        },
        {
          "indexed": false,
          "internalType": "uint256",
          "name": "bidId",
          "type": "uint256"
        },
        {
          "indexed": false,
          "internalType": "uint256",
          "name": "time",
          "type": "uint256"
        }
      ],
      "name": "BidCreated",
      "type": "event"
    },
    {
      "anonymous": false,
      "inputs": [
        {
          "indexed": true,
          "internalType": "address",
          "name": "creator",
          "type": "address"
        },
        {
          "indexed": true,
          "internalType": "address",
          "name": "contractAddr",
          "type": "address"
        },
        {
          "indexed": false,
          "internalType": "uint256",
          "name": "time",
          "type": "uint256"
        }
      ],
      "name": "NFTContractCreated",
      "type": "event"
    },
    {
      "anonymous": false,
      "inputs": [
        {
          "indexed": true,
          "internalType": "address",
          "name": "seller",
          "type": "address"
        },
        {
          "indexed": true,
          "internalType": "uint256",
          "name": "orderId",
          "type": "uint256"
        },
        {
          "indexed": false,
          "internalType": "uint256",
          "name": "time",
          "type": "uint256"
        }
      ],
      "name": "SellOrderCanceled",
      "type": "event"
    },
    {
      "anonymous": false,
      "inputs": [
        {
          "indexed": true,
          "internalType": "address",
          "name": "creator",
          "type": "address"
        },
        {
          "indexed": true,
          "internalType": "uint256",
          "name": "orderId",
          "type": "uint256"
        },
        {
          "indexed": false,
          "internalType": "uint256",
          "name": "time",
          "type": "uint256"
        }
      ],
      "name": "SellOrderCreated",
      "type": "event"
    },
    {
      "inputs": [],
      "name": "bidCount",
      "outputs": [
        {
          "internalType": "uint256",
          "name": "",
          "type": "uint256"
        }
      ],
      "stateMutability": "view",
      "type": "function"
    },
    {
      "inputs": [],
      "name": "factory",
      "outputs": [
        {
          "internalType": "address",
          "name": "",
          "type": "address"
        }
      ],
      "stateMutability": "view",
      "type": "function"
    },
    {
      "inputs": [],
      "name": "marketFee",
      "outputs": [
        {
          "internalType": "uint8",
          "name": "",
          "type": "uint8"
        }
      ],
      "stateMutability": "view",
      "type": "function"
    },
    {
      "inputs": [],
      "name": "marketFeeTaker",
      "outputs": [
        {
          "internalType": "address",
          "name": "",
          "type": "address"
        }
      ],
      "stateMutability": "view",
      "type": "function"
    },
    {
      "inputs": [],
      "name": "proxyOwner",
      "outputs": [
        {
          "internalType": "address",
          "name": "",
          "type": "address"
        }
      ],
      "stateMutability": "view",
      "type": "function"
    },
    {
      "inputs": [],
      "name": "sellOrderCount",
      "outputs": [
        {
          "internalType": "uint256",
          "name": "",
          "type": "uint256"
        }
      ],
      "stateMutability": "view",
      "type": "function"
    },
    {
      "inputs": [
        {
          "internalType": "uint256",
          "name": "",
          "type": "uint256"
        }
      ],
      "name": "tokens",
      "outputs": [
        {
          "internalType": "address",
          "name": "",
          "type": "address"
        }
      ],
      "stateMutability": "view",
      "type": "function"
    },
    {
      "inputs": [
        {
          "internalType": "address",
          "name": "_contractAddr",
          "type": "address"
        },
        {
          "internalType": "uint256",
          "name": "_nftId",
          "type": "uint256"
        },
        {
          "internalType": "address",
          "name": "_token",
          "type": "address"
        },
        {
          "internalType": "uint256",
          "name": "_price",
          "type": "uint256"
        }
      ],
      "name": "createSellOrder",
      "outputs": [],
      "stateMutability": "nonpayable",
      "type": "function"
    },
    {
      "inputs": [
        {
          "internalType": "uint256",
          "name": "_orderId",
          "type": "uint256"
        },
        {
          "internalType": "address",
          "name": "_token",
          "type": "address"
        },
        {
          "internalType": "uint256",
          "name": "_price",
          "type": "uint256"
        }
      ],
      "name": "createBid",
      "outputs": [],
      "stateMutability": "nonpayable",
      "type": "function"
    },
    {
      "inputs": [
        {
          "internalType": "uint256",
          "name": "_bidId",
          "type": "uint256"
        },
        {
          "internalType": "uint256",
          "name": "_orderId",
          "type": "uint256"
        }
      ],
      "name": "acceptBid",
      "outputs": [],
      "stateMutability": "nonpayable",
      "type": "function"
    },
    {
      "inputs": [
        {
          "internalType": "uint256",
          "name": "_bidId",
          "type": "uint256"
        }
      ],
      "name": "cancelBid",
      "outputs": [],
      "stateMutability": "nonpayable",
      "type": "function"
    },
    {
      "inputs": [
        {
          "internalType": "uint256",
          "name": "_orderId",
          "type": "uint256"
        }
      ],
      "name": "cancelSellOrder",
      "outputs": [],
      "stateMutability": "nonpayable",
      "type": "function"
    },
    {
      "inputs": [
        {
          "internalType": "string",
          "name": "_collectionName",
          "type": "string"
        },
        {
          "internalType": "string",
          "name": "_collectionSymbol",
          "type": "string"
        },
        {
          "internalType": "string",
          "name": "_collectionDescription",
          "type": "string"
        },
        {
          "internalType": "address",
          "name": "_factory",
          "type": "address"
        }
      ],
      "name": "createERC721Contract",
      "outputs": [],
      "stateMutability": "nonpayable",
      "type": "function"
    },
    {
      "inputs": [
        {
          "internalType": "address",
          "name": "_newOwner",
          "type": "address"
        }
      ],
      "name": "changeOwner",
      "outputs": [],
      "stateMutability": "nonpayable",
      "type": "function"
    },
    {
      "inputs": [
        {
          "internalType": "uint8",
          "name": "_newFee",
          "type": "uint8"
        }
      ],
      "name": "changeMarketFee",
      "outputs": [],
      "stateMutability": "nonpayable",
      "type": "function"
    },
    {
      "inputs": [
        {
          "internalType": "address",
          "name": "_newFeeTaker",
          "type": "address"
        }
      ],
      "name": "changeMarketFeeTaker",
      "outputs": [],
      "stateMutability": "nonpayable",
      "type": "function"
    },
    {
      "inputs": [
        {
          "internalType": "address",
          "name": "_newFactory",
          "type": "address"
        }
      ],
      "name": "changeFactory",
      "outputs": [],
      "stateMutability": "nonpayable",
      "type": "function"
    },
    {
      "inputs": [
        {
          "internalType": "uint256",
          "name": "_sellOrderId",
          "type": "uint256"
        }
      ],
      "name": "sellOrder",
      "outputs": [
        {
          "components": [
            {
              "internalType": "address",
              "name": "seller",
              "type": "address"
            },
            {
              "internalType": "address",
              "name": "token",
              "type": "address"
            },
            {
              "internalType": "address",
              "name": "contractAddr",
              "type": "address"
            },
            {
              "internalType": "uint256",
              "name": "nftId",
              "type": "uint256"
            },
            {
              "internalType": "address",
              "name": "buyer",
              "type": "address"
            },
            {
              "internalType": "uint256",
              "name": "price",
              "type": "uint256"
            },
            {
              "internalType": "uint256",
              "name": "startedAt",
              "type": "uint256"
            },
            {
              "internalType": "uint256",
              "name": "endedAt",
              "type": "uint256"
            },
            {
              "internalType": "bool",
              "name": "isCanceled",
              "type": "bool"
            },
            {
              "internalType": "bool",
              "name": "isEnded",
              "type": "bool"
            }
          ],
          "internalType": "struct MarketPlace.SellOrder",
          "name": "",
          "type": "tuple"
        }
      ],
      "stateMutability": "view",
      "type": "function"
    },
    {
      "inputs": [
        {
          "internalType": "uint256",
          "name": "_bidId",
          "type": "uint256"
        }
      ],
      "name": "bid",
      "outputs": [
        {
          "components": [
            {
              "internalType": "address",
              "name": "bidder",
              "type": "address"
            },
            {
              "internalType": "address",
              "name": "token",
              "type": "address"
            },
            {
              "internalType": "address",
              "name": "nftOwner",
              "type": "address"
            },
            {
              "internalType": "uint256",
              "name": "sellOrderId",
              "type": "uint256"
            },
            {
              "internalType": "uint256",
              "name": "price",
              "type": "uint256"
            },
            {
              "internalType": "uint256",
              "name": "biddedAt",
              "type": "uint256"
            },
            {
              "internalType": "uint256",
              "name": "bidEndedAt",
              "type": "uint256"
            },
            {
              "internalType": "bool",
              "name": "isCanceled",
              "type": "bool"
            },
            {
              "internalType": "bool",
              "name": "isEnded",
              "type": "bool"
            }
          ],
          "internalType": "struct MarketPlace.Bid",
          "name": "",
          "type": "tuple"
        }
      ],
      "stateMutability": "view",
      "type": "function"
    },
    {
      "inputs": [
        {
          "internalType": "address",
          "name": "_user",
          "type": "address"
        }
      ],
      "name": "getUserContract",
      "outputs": [
        {
          "internalType": "address",
          "name": "",
          "type": "address"
        }
      ],
      "stateMutability": "view",
      "type": "function"
    },
    {
      "inputs": [],
      "name": "getTokens",
      "outputs": [
        {
          "internalType": "address[]",
          "name": "",
          "type": "address[]"
        }
      ],
      "stateMutability": "view",
      "type": "function"
    },
    {
      "inputs": [
        {
          "internalType": "address",
          "name": "_target",
          "type": "address"
        }
      ],
      "name": "isValid",
      "outputs": [
        {
          "internalType": "bool",
          "name": "",
          "type": "bool"
        }
      ],
      "stateMutability": "view",
      "type": "function"
    }
  ],
  "bytecode": "0x6080604052600160045560016005553480156200001b57600080fd5b5060405162004c9738038062004c97833981810160405281019062000041919062000565565b33600160006101000a81548173ffffffffffffffffffffffffffffffffffffffff021916908373ffffffffffffffffffffffffffffffffffffffff160217905550806000806101000a81548173ffffffffffffffffffffffffffffffffffffffff021916908373ffffffffffffffffffffffffffffffffffffffff16021790555083600260146101000a81548160ff021916908360ff16021790555082600260006101000a81548173ffffffffffffffffffffffffffffffffffffffff021916908373ffffffffffffffffffffffffffffffffffffffff160217905550600082511162000165576040517f08c379a00000000000000000000000000000000000000000000000000000000081526004016200015c9062000657565b60405180910390fd5b60005b82518110156200032e5760001515600a600085848151811062000190576200018f62000679565b5b602002602001015173ffffffffffffffffffffffffffffffffffffffff1673ffffffffffffffffffffffffffffffffffffffff16815260200190815260200160002060009054906101000a900460ff1615151462000225576040517f08c379a00000000000000000000000000000000000000000000000000000000081526004016200021c90620006f8565b60405180910390fd5b6001600a600085848151811062000241576200024062000679565b5b602002602001015173ffffffffffffffffffffffffffffffffffffffff1673ffffffffffffffffffffffffffffffffffffffff16815260200190815260200160002060006101000a81548160ff0219169083151502179055506003838281518110620002b257620002b162000679565b5b60200260200101519080600181540180825580915050600190039060005260206000200160009091909190916101000a81548173ffffffffffffffffffffffffffffffffffffffff021916908373ffffffffffffffffffffffffffffffffffffffff16021790555080620003269062000753565b905062000168565b5050505050620007a0565b6000604051905090565b600080fd5b600080fd5b600060ff82169050919050565b62000365816200034d565b81146200037157600080fd5b50565b60008151905062000385816200035a565b92915050565b600073ffffffffffffffffffffffffffffffffffffffff82169050919050565b6000620003b8826200038b565b9050919050565b620003ca81620003ab565b8114620003d657600080fd5b50565b600081519050620003ea81620003bf565b92915050565b600080fd5b6000601f19601f8301169050919050565b7f4e487b7100000000000000000000000000000000000000000000000000000000600052604160045260246000fd5b6200044082620003f5565b810181811067ffffffffffffffff8211171562000462576200046162000406565b5b80604052505050565b60006200047762000339565b905062000485828262000435565b919050565b600067ffffffffffffffff821115620004a857620004a762000406565b5b602082029050602081019050919050565b600080fd5b6000620004d5620004cf846200048a565b6200046b565b90508083825260208201905060208402830185811115620004fb57620004fa620004b9565b5b835b81811015620005285780620005138882620003d9565b845260208401935050602081019050620004fd565b5050509392505050565b600082601f8301126200054a5762000549620003f0565b5b81516200055c848260208601620004be565b91505092915050565b6000806000806080858703121562000582576200058162000343565b5b6000620005928782880162000374565b9450506020620005a587828801620003d9565b935050604085015167ffffffffffffffff811115620005c957620005c862000348565b5b620005d78782880162000532565b9250506060620005ea87828801620003d9565b91505092959194509250565b600082825260208201905092915050565b7f4174206c65617374206f6e6520746f6b656e206e656564656421000000000000600082015250565b60006200063f601a83620005f6565b91506200064c8262000607565b602082019050919050565b60006020820190508181036000830152620006728162000630565b9050919050565b7f4e487b7100000000000000000000000000000000000000000000000000000000600052603260045260246000fd5b7f4475706c696361746520746f6b656e2e00000000000000000000000000000000600082015250565b6000620006e0601083620005f6565b9150620006ed82620006a8565b602082019050919050565b600060208201905081810360008301526200071381620006d1565b9050919050565b7f4e487b7100000000000000000000000000000000000000000000000000000000600052601160045260246000fd5b6000819050919050565b6000620007608262000749565b91507fffffffffffffffffffffffffffffffffffffffffffffffffffffffffffffffff82036200079557620007946200071a565b5b600182019050919050565b6144e780620007b06000396000f3fe608060405234801561001057600080fd5b50600436106101425760003560e01c80638d818e13116100b8578063a6f9dae11161007c578063a6f9dae114610371578063aa6ca8081461038d578063b40a5627146103ab578063c45a0155146103c9578063eeefd51b146103e7578063f58c7acf1461040357610142565b80638d818e13146102cf57806392dc3ddc146102eb5780639703ef351461030757806397514d9014610323578063986c33c71461035357610142565b80631a46e42a1161010a5780631a46e42a146101d7578063454a2ab3146101f35780634f64b2be14610223578063755a56db146102535780637e6c75f21461026f5780638b1b925f1461029f57610142565b8063025313a21461014757806302e9d5e414610165578063069fe70d146101815780630ccf21561461019d57806311c6e741146101bb575b600080fd5b61014f610421565b60405161015c9190613112565b60405180910390f35b61017f600480360381019061017a919061316d565b610447565b005b61019b600480360381019061019691906131d9565b610d19565b005b6101a5611378565b6040516101b2919061325c565b60405180910390f35b6101d560048036038101906101d09190613277565b61138b565b005b6101f160048036038101906101ec91906132a4565b61145e565b005b61020d600480360381019061020891906132a4565b61183e565b60405161021a91906133c1565b60405180910390f35b61023d600480360381019061023891906132a4565b6119cc565b60405161024a9190613112565b60405180910390f35b61026d60048036038101906102689190613277565b611a0b565b005b61028960048036038101906102849190613277565b611adf565b6040516102969190613112565b60405180910390f35b6102b960048036038101906102b49190613277565b611b48565b6040516102c691906133ec565b60405180910390f35b6102e960048036038101906102e49190613407565b611b9e565b005b61030560048036038101906103009190613486565b6123a3565b005b610321600480360381019061031c91906132a4565b612451565b005b61033d600480360381019061033891906132a4565b6127a6565b60405161034a919061357f565b60405180910390f35b61035b61298a565b6040516103689190613112565b60405180910390f35b61038b60048036038101906103869190613277565b6129b0565b005b610395612a84565b6040516103a2919061364a565b60405180910390f35b6103b3612b12565b6040516103c0919061367b565b60405180910390f35b6103d1612b18565b6040516103de9190613112565b60405180910390f35b61040160048036038101906103fc91906136fb565b612b3c565b005b61040b612f57565b604051610418919061367b565b60405180910390f35b600160009054906101000a900473ffffffffffffffffffffffffffffffffffffffff1681565b60001515600b60009054906101000a900460ff1615151461049d576040517f08c379a000000000000000000000000000000000000000000000000000000000815260040161049490613821565b60405180910390fd5b6001600b60006101000a81548160ff02191690831515021790555060006007600084815260200190815260200160002090506000600660008481526020019081526020016000209050600073ffffffffffffffffffffffffffffffffffffffff168260000160009054906101000a900473ffffffffffffffffffffffffffffffffffffffff1673ffffffffffffffffffffffffffffffffffffffff16141580156105985750600073ffffffffffffffffffffffffffffffffffffffff168160000160009054906101000a900473ffffffffffffffffffffffffffffffffffffffff1673ffffffffffffffffffffffffffffffffffffffff1614155b6105d7576040517f08c379a00000000000000000000000000000000000000000000000000000000081526004016105ce9061388d565b60405180910390fd5b3373ffffffffffffffffffffffffffffffffffffffff168160000160009054906101000a900473ffffffffffffffffffffffffffffffffffffffff1673ffffffffffffffffffffffffffffffffffffffff1614610669576040517f08c379a00000000000000000000000000000000000000000000000000000000081526004016106609061391f565b60405180910390fd5b600015158160080160009054906101000a900460ff1615151480156106a35750600015158160080160019054906101000a900460ff161515145b6106e2576040517f08c379a00000000000000000000000000000000000000000000000000000000081526004016106d99061398b565b60405180910390fd5b600015158260070160009054906101000a900460ff16151514801561071c5750600015158260070160019054906101000a900460ff161515145b61075b576040517f08c379a0000000000000000000000000000000000000000000000000000000008152600401610752906139f7565b60405180910390fd5b8160000160009054906101000a900473ffffffffffffffffffffffffffffffffffffffff168160040160006101000a81548173ffffffffffffffffffffffffffffffffffffffff021916908373ffffffffffffffffffffffffffffffffffffffff16021790555060018160080160016101000a81548160ff02191690831515021790555042816007018190555042826006018190555060018260070160016101000a81548160ff021916908315150217905550600082600401549050600061082282612f5d565b9050600081836108329190613a46565b905060008560010160009054906101000a900473ffffffffffffffffffffffffffffffffffffffff16905060008560020160009054906101000a900473ffffffffffffffffffffffffffffffffffffffff1690508073ffffffffffffffffffffffffffffffffffffffff166323b872dd308960000160009054906101000a900473ffffffffffffffffffffffffffffffffffffffff1689600301546040518463ffffffff1660e01b81526004016108eb93929190613a7a565b600060405180830381600087803b15801561090557600080fd5b505af1925050508015610916575060015b61094c576040517f8fec311f00000000000000000000000000000000000000000000000000000000815260040160405180910390fd5b8660000160009054906101000a900473ffffffffffffffffffffffffffffffffffffffff1673ffffffffffffffffffffffffffffffffffffffff168173ffffffffffffffffffffffffffffffffffffffff16636352211e88600301546040518263ffffffff1660e01b81526004016109c4919061367b565b602060405180830381865afa1580156109e1573d6000803e3d6000fd5b505050506040513d601f19601f82011682018060405250810190610a059190613ac6565b73ffffffffffffffffffffffffffffffffffffffff1614610a5b576040517f08c379a0000000000000000000000000000000000000000000000000000000008152600401610a5290613b65565b60405180910390fd5b8173ffffffffffffffffffffffffffffffffffffffff1663a9059cbb33856040518363ffffffff1660e01b8152600401610a96929190613b85565b6020604051808303816000875af1925050508015610ad257506040513d601f19601f82011682018060405250810190610acf9190613bda565b60015b610b08576040517f8fec311f00000000000000000000000000000000000000000000000000000000815260040160405180910390fd5b6001151581151514610b4f576040517f08c379a0000000000000000000000000000000000000000000000000000000008152600401610b4690613c53565b60405180910390fd5b8273ffffffffffffffffffffffffffffffffffffffff1663a9059cbb600260009054906101000a900473ffffffffffffffffffffffffffffffffffffffff16876040518363ffffffff1660e01b8152600401610bac929190613b85565b6020604051808303816000875af1925050508015610be857506040513d601f19601f82011682018060405250810190610be59190613bda565b60015b610c1e576040517f8fec311f00000000000000000000000000000000000000000000000000000000815260040160405180910390fd5b6001151581151514610c65576040517f08c379a0000000000000000000000000000000000000000000000000000000008152600401610c5c90613c53565b60405180910390fd5b898960000160009054906101000a900473ffffffffffffffffffffffffffffffffffffffff1673ffffffffffffffffffffffffffffffffffffffff163373ffffffffffffffffffffffffffffffffffffffff167f9af5b93a3b1caa2d824a98b7ead48092453f454db56189c38867008f20106b068e42604051610ce9929190613c73565b60405180910390a45050505050505050506000600b60006101000a81548160ff0219169083151502179055505050565b60011515600960008673ffffffffffffffffffffffffffffffffffffffff1673ffffffffffffffffffffffffffffffffffffffff16815260200190815260200160002060009054906101000a900460ff16151514610dac576040517f08c379a0000000000000000000000000000000000000000000000000000000008152600401610da390613ce8565b60405180910390fd5b60011515600a60008473ffffffffffffffffffffffffffffffffffffffff1673ffffffffffffffffffffffffffffffffffffffff16815260200190815260200160002060009054906101000a900460ff16151514610e3f576040517f08c379a0000000000000000000000000000000000000000000000000000000008152600401610e3690613d54565b60405180910390fd5b60008490503373ffffffffffffffffffffffffffffffffffffffff168173ffffffffffffffffffffffffffffffffffffffff16636352211e866040518263ffffffff1660e01b8152600401610e94919061367b565b602060405180830381865afa158015610eb1573d6000803e3d6000fd5b505050506040513d601f19601f82011682018060405250810190610ed59190613ac6565b73ffffffffffffffffffffffffffffffffffffffff1614610f2b576040517f08c379a0000000000000000000000000000000000000000000000000000000008152600401610f2290613de6565b60405180910390fd5b8073ffffffffffffffffffffffffffffffffffffffff166323b872dd3330876040518463ffffffff1660e01b8152600401610f6893929190613a7a565b600060405180830381600087803b158015610f8257600080fd5b505af1925050508015610f93575060015b610fc9576040517f8fec311f00000000000000000000000000000000000000000000000000000000815260040160405180910390fd5b3073ffffffffffffffffffffffffffffffffffffffff168173ffffffffffffffffffffffffffffffffffffffff16636352211e866040518263ffffffff1660e01b8152600401611019919061367b565b602060405180830381865afa158015611036573d6000803e3d6000fd5b505050506040513d601f19601f8201168201806040525081019061105a9190613ac6565b73ffffffffffffffffffffffffffffffffffffffff16146110b0576040517f08c379a00000000000000000000000000000000000000000000000000000000081526004016110a790613c53565b60405180910390fd5b60006040518061014001604052803373ffffffffffffffffffffffffffffffffffffffff1681526020018573ffffffffffffffffffffffffffffffffffffffff1681526020018773ffffffffffffffffffffffffffffffffffffffff168152602001868152602001600073ffffffffffffffffffffffffffffffffffffffff168152602001848152602001428152602001600081526020016000151581526020016000151581525090508060066000600454815260200190815260200160002060008201518160000160006101000a81548173ffffffffffffffffffffffffffffffffffffffff021916908373ffffffffffffffffffffffffffffffffffffffff16021790555060208201518160010160006101000a81548173ffffffffffffffffffffffffffffffffffffffff021916908373ffffffffffffffffffffffffffffffffffffffff16021790555060408201518160020160006101000a81548173ffffffffffffffffffffffffffffffffffffffff021916908373ffffffffffffffffffffffffffffffffffffffff1602179055506060820151816003015560808201518160040160006101000a81548173ffffffffffffffffffffffffffffffffffffffff021916908373ffffffffffffffffffffffffffffffffffffffff16021790555060a0820151816005015560c0820151816006015560e082015181600701556101008201518160080160006101000a81548160ff0219169083151502179055506101208201518160080160016101000a81548160ff02191690831515021790555090505060016004600082825461130c9190613e06565b9250508190555060016004546113229190613a46565b3373ffffffffffffffffffffffffffffffffffffffff167fadba12ece002c8cc6bb493da9e745b1011f78c45fa8dd02a374d927789d9fc1142604051611368919061367b565b60405180910390a3505050505050565b600260149054906101000a900460ff1681565b600160009054906101000a900473ffffffffffffffffffffffffffffffffffffffff1673ffffffffffffffffffffffffffffffffffffffff163373ffffffffffffffffffffffffffffffffffffffff161461141b576040517f08c379a000000000000000000000000000000000000000000000000000000000815260040161141290613e86565b60405180910390fd5b806000806101000a81548173ffffffffffffffffffffffffffffffffffffffff021916908373ffffffffffffffffffffffffffffffffffffffff16021790555050565b60001515600b60009054906101000a900460ff161515146114b4576040517f08c379a00000000000000000000000000000000000000000000000000000000081526004016114ab90613821565b60405180910390fd5b6001600b60006101000a81548160ff02191690831515021790555060006006600083815260200190815260200160002090503373ffffffffffffffffffffffffffffffffffffffff168160000160009054906101000a900473ffffffffffffffffffffffffffffffffffffffff1673ffffffffffffffffffffffffffffffffffffffff1614611578576040517f08c379a000000000000000000000000000000000000000000000000000000000815260040161156f90613ef2565b60405180910390fd5b600015158160080160009054906101000a900460ff1615151480156115b25750600015158160080160019054906101000a900460ff161515145b6115f1576040517f08c379a00000000000000000000000000000000000000000000000000000000081526004016115e890613f5e565b60405180910390fd5b60018160080160006101000a81548160ff02191690831515021790555042816007018190555060008160030154905060008260020160009054906101000a900473ffffffffffffffffffffffffffffffffffffffff1690508073ffffffffffffffffffffffffffffffffffffffff166323b872dd3033856040518463ffffffff1660e01b815260040161168693929190613a7a565b600060405180830381600087803b1580156116a057600080fd5b505af19250505080156116b1575060015b6116e7576040517f8fec311f00000000000000000000000000000000000000000000000000000000815260040160405180910390fd5b3373ffffffffffffffffffffffffffffffffffffffff168173ffffffffffffffffffffffffffffffffffffffff16636352211e846040518263ffffffff1660e01b8152600401611737919061367b565b602060405180830381865afa158015611754573d6000803e3d6000fd5b505050506040513d601f19601f820116820180604052508101906117789190613ac6565b73ffffffffffffffffffffffffffffffffffffffff16146117ce576040517f08c379a00000000000000000000000000000000000000000000000000000000081526004016117c590613c53565b60405180910390fd5b833373ffffffffffffffffffffffffffffffffffffffff167f216e4a21969759a6d6b90f3effa176462079ae0538cfbbed513e0c1a630654d342604051611815919061367b565b60405180910390a35050506000600b60006101000a81548160ff02191690831515021790555050565b611846612f90565b60076000838152602001908152602001600020604051806101200160405290816000820160009054906101000a900473ffffffffffffffffffffffffffffffffffffffff1673ffffffffffffffffffffffffffffffffffffffff1673ffffffffffffffffffffffffffffffffffffffff1681526020016001820160009054906101000a900473ffffffffffffffffffffffffffffffffffffffff1673ffffffffffffffffffffffffffffffffffffffff1673ffffffffffffffffffffffffffffffffffffffff1681526020016002820160009054906101000a900473ffffffffffffffffffffffffffffffffffffffff1673ffffffffffffffffffffffffffffffffffffffff1673ffffffffffffffffffffffffffffffffffffffff168152602001600382015481526020016004820154815260200160058201548152602001600682015481526020016007820160009054906101000a900460ff161515151581526020016007820160019054906101000a900460ff1615151515815250509050919050565b600381815481106119dc57600080fd5b906000526020600020016000915054906101000a900473ffffffffffffffffffffffffffffffffffffffff1681565b600160009054906101000a900473ffffffffffffffffffffffffffffffffffffffff1673ffffffffffffffffffffffffffffffffffffffff163373ffffffffffffffffffffffffffffffffffffffff1614611a9b576040517f08c379a0000000000000000000000000000000000000000000000000000000008152600401611a9290613e86565b60405180910390fd5b80600260006101000a81548173ffffffffffffffffffffffffffffffffffffffff021916908373ffffffffffffffffffffffffffffffffffffffff16021790555050565b6000600860008373ffffffffffffffffffffffffffffffffffffffff1673ffffffffffffffffffffffffffffffffffffffff16815260200190815260200160002060009054906101000a900473ffffffffffffffffffffffffffffffffffffffff169050919050565b6000600960008373ffffffffffffffffffffffffffffffffffffffff1673ffffffffffffffffffffffffffffffffffffffff16815260200190815260200160002060009054906101000a900460ff169050919050565b60001515600b60009054906101000a900460ff16151514611bf4576040517f08c379a0000000000000000000000000000000000000000000000000000000008152600401611beb90613821565b60405180910390fd5b6001600b60006101000a81548160ff02191690831515021790555060011515600a60008473ffffffffffffffffffffffffffffffffffffffff1673ffffffffffffffffffffffffffffffffffffffff16815260200190815260200160002060009054906101000a900460ff16151514611ca2576040517f08c379a0000000000000000000000000000000000000000000000000000000008152600401611c9990613d54565b60405180910390fd5b60008111611ce5576040517f08c379a0000000000000000000000000000000000000000000000000000000008152600401611cdc90613fca565b60405180910390fd5b600060066000858152602001908152602001600020604051806101400160405290816000820160009054906101000a900473ffffffffffffffffffffffffffffffffffffffff1673ffffffffffffffffffffffffffffffffffffffff1673ffffffffffffffffffffffffffffffffffffffff1681526020016001820160009054906101000a900473ffffffffffffffffffffffffffffffffffffffff1673ffffffffffffffffffffffffffffffffffffffff1673ffffffffffffffffffffffffffffffffffffffff1681526020016002820160009054906101000a900473ffffffffffffffffffffffffffffffffffffffff1673ffffffffffffffffffffffffffffffffffffffff1673ffffffffffffffffffffffffffffffffffffffff168152602001600382015481526020016004820160009054906101000a900473ffffffffffffffffffffffffffffffffffffffff1673ffffffffffffffffffffffffffffffffffffffff1673ffffffffffffffffffffffffffffffffffffffff1681526020016005820154815260200160068201548152602001600782015481526020016008820160009054906101000a900460ff161515151581526020016008820160019054906101000a900460ff1615151515815250509050600073ffffffffffffffffffffffffffffffffffffffff16816000015173ffffffffffffffffffffffffffffffffffffffff1603611f31576040517f08c379a0000000000000000000000000000000000000000000000000000000008152600401611f2890614036565b60405180910390fd5b600015158161010001511515148015611f535750600015158161012001511515145b611f92576040517f08c379a0000000000000000000000000000000000000000000000000000000008152600401611f89906140a2565b60405180910390fd5b3373ffffffffffffffffffffffffffffffffffffffff16816000015173ffffffffffffffffffffffffffffffffffffffff1603612004576040517f08c379a0000000000000000000000000000000000000000000000000000000008152600401611ffb90614134565b60405180910390fd5b60008390508073ffffffffffffffffffffffffffffffffffffffff166323b872dd3330866040518463ffffffff1660e01b815260040161204693929190613a7a565b6020604051808303816000875af192505050801561208257506040513d601f19601f8201168201806040525081019061207f9190613bda565b60015b6120b8576040517f8fec311f00000000000000000000000000000000000000000000000000000000815260040160405180910390fd5b60011515811515146120ff576040517f08c379a00000000000000000000000000000000000000000000000000000000081526004016120f690613c53565b60405180910390fd5b60006040518061012001604052803373ffffffffffffffffffffffffffffffffffffffff1681526020018773ffffffffffffffffffffffffffffffffffffffff168152602001856000015173ffffffffffffffffffffffffffffffffffffffff168152602001888152602001868152602001428152602001600081526020016000151581526020016000151581525090508060076000600554815260200190815260200160002060008201518160000160006101000a81548173ffffffffffffffffffffffffffffffffffffffff021916908373ffffffffffffffffffffffffffffffffffffffff16021790555060208201518160010160006101000a81548173ffffffffffffffffffffffffffffffffffffffff021916908373ffffffffffffffffffffffffffffffffffffffff16021790555060408201518160020160006101000a81548173ffffffffffffffffffffffffffffffffffffffff021916908373ffffffffffffffffffffffffffffffffffffffff160217905550606082015181600301556080820151816004015560a0820151816005015560c0820151816006015560e08201518160070160006101000a81548160ff0219169083151502179055506101008201518160070160016101000a81548160ff0219169083151502179055509050506001600560008282546122fa9190613e06565b925050819055508360600151846040015173ffffffffffffffffffffffffffffffffffffffff163373ffffffffffffffffffffffffffffffffffffffff167f23c31f8ed9ad472d2122170e55b87eff1ccb31b98537277b6a9b3f1df56d97b860016005546123689190613a46565b42604051612377929190613c73565b60405180910390a4505050506000600b60006101000a81548160ff021916908315150217905550505050565b600160009054906101000a900473ffffffffffffffffffffffffffffffffffffffff1673ffffffffffffffffffffffffffffffffffffffff163373ffffffffffffffffffffffffffffffffffffffff1614612433576040517f08c379a000000000000000000000000000000000000000000000000000000000815260040161242a90613e86565b60405180910390fd5b80600260146101000a81548160ff021916908360ff16021790555050565b60001515600b60009054906101000a900460ff161515146124a7576040517f08c379a000000000000000000000000000000000000000000000000000000000815260040161249e90613821565b60405180910390fd5b6001600b60006101000a81548160ff02191690831515021790555060006007600083815260200190815260200160002090503373ffffffffffffffffffffffffffffffffffffffff168160000160009054906101000a900473ffffffffffffffffffffffffffffffffffffffff1673ffffffffffffffffffffffffffffffffffffffff161461256b576040517f08c379a0000000000000000000000000000000000000000000000000000000008152600401612562906141a0565b60405180910390fd5b600015158160070160019054906101000a900460ff1615151480156125a55750600015158160070160009054906101000a900460ff161515145b6125e4576040517f08c379a00000000000000000000000000000000000000000000000000000000081526004016125db9061420c565b60405180910390fd5b60018160070160006101000a81548160ff02191690831515021790555042816006018190555060008160040154905060008260010160009054906101000a900473ffffffffffffffffffffffffffffffffffffffff1690508073ffffffffffffffffffffffffffffffffffffffff1663a9059cbb33846040518363ffffffff1660e01b8152600401612677929190613b85565b6020604051808303816000875af19250505080156126b357506040513d601f19601f820116820180604052508101906126b09190613bda565b60015b6126e9576040517f8fec311f00000000000000000000000000000000000000000000000000000000815260040160405180910390fd5b6001151581151514612730576040517f08c379a000000000000000000000000000000000000000000000000000000000815260040161272790613c53565b60405180910390fd5b8360030154853373ffffffffffffffffffffffffffffffffffffffff167fd4993302a3a9c4df7b1f2eb716a08b30a08fdde96d03e4fdae4f0c886fb0fdef4260405161277c919061367b565b60405180910390a4505050506000600b60006101000a81548160ff02191690831515021790555050565b6127ae613022565b60066000838152602001908152602001600020604051806101400160405290816000820160009054906101000a900473ffffffffffffffffffffffffffffffffffffffff1673ffffffffffffffffffffffffffffffffffffffff1673ffffffffffffffffffffffffffffffffffffffff1681526020016001820160009054906101000a900473ffffffffffffffffffffffffffffffffffffffff1673ffffffffffffffffffffffffffffffffffffffff1673ffffffffffffffffffffffffffffffffffffffff1681526020016002820160009054906101000a900473ffffffffffffffffffffffffffffffffffffffff1673ffffffffffffffffffffffffffffffffffffffff1673ffffffffffffffffffffffffffffffffffffffff168152602001600382015481526020016004820160009054906101000a900473ffffffffffffffffffffffffffffffffffffffff1673ffffffffffffffffffffffffffffffffffffffff1673ffffffffffffffffffffffffffffffffffffffff1681526020016005820154815260200160068201548152602001600782015481526020016008820160009054906101000a900460ff161515151581526020016008820160019054906101000a900460ff1615151515815250509050919050565b600260009054906101000a900473ffffffffffffffffffffffffffffffffffffffff1681565b600160009054906101000a900473ffffffffffffffffffffffffffffffffffffffff1673ffffffffffffffffffffffffffffffffffffffff163373ffffffffffffffffffffffffffffffffffffffff1614612a40576040517f08c379a0000000000000000000000000000000000000000000000000000000008152600401612a3790613e86565b60405180910390fd5b80600160006101000a81548173ffffffffffffffffffffffffffffffffffffffff021916908373ffffffffffffffffffffffffffffffffffffffff16021790555050565b60606003805480602002602001604051908101604052809291908181526020018280548015612b0857602002820191906000526020600020905b8160009054906101000a900473ffffffffffffffffffffffffffffffffffffffff1673ffffffffffffffffffffffffffffffffffffffff1681526020019060010190808311612abe575b5050505050905090565b60055481565b60008054906101000a900473ffffffffffffffffffffffffffffffffffffffff1681565b60001515600b60009054906101000a900460ff16151514612b92576040517f08c379a0000000000000000000000000000000000000000000000000000000008152600401612b8990613821565b60405180910390fd5b6001600b60006101000a81548160ff02191690831515021790555060008054906101000a900473ffffffffffffffffffffffffffffffffffffffff1673ffffffffffffffffffffffffffffffffffffffff168173ffffffffffffffffffffffffffffffffffffffff1614612c3b576040517f08c379a0000000000000000000000000000000000000000000000000000000008152600401612c3290614278565b60405180910390fd5b600073ffffffffffffffffffffffffffffffffffffffff16600860003373ffffffffffffffffffffffffffffffffffffffff1673ffffffffffffffffffffffffffffffffffffffff16815260200190815260200160002060009054906101000a900473ffffffffffffffffffffffffffffffffffffffff1673ffffffffffffffffffffffffffffffffffffffff1614612d09576040517f08c379a0000000000000000000000000000000000000000000000000000000008152600401612d00906142e4565b60405180910390fd5b600087879050118015612d1f5750600085859050115b8015612d2e5750600083839050115b612d6d576040517f08c379a0000000000000000000000000000000000000000000000000000000008152600401612d6490614350565b60405180910390fd5b60008173ffffffffffffffffffffffffffffffffffffffff16631e67c24a8989898989896040518763ffffffff1660e01b8152600401612db2969594939291906143bd565b6020604051808303816000875af1158015612dd1573d6000803e3d6000fd5b505050506040513d601f19601f82011682018060405250810190612df59190613ac6565b905080600860003373ffffffffffffffffffffffffffffffffffffffff1673ffffffffffffffffffffffffffffffffffffffff16815260200190815260200160002060006101000a81548173ffffffffffffffffffffffffffffffffffffffff021916908373ffffffffffffffffffffffffffffffffffffffff1602179055506001600960008373ffffffffffffffffffffffffffffffffffffffff1673ffffffffffffffffffffffffffffffffffffffff16815260200190815260200160002060006101000a81548160ff0219169083151502179055508073ffffffffffffffffffffffffffffffffffffffff163373ffffffffffffffffffffffffffffffffffffffff167f90aa3785882c1a31d30e1b6d1dc1a016eb876f6ca5112227c60c6c236093ccfe42604051612f2a919061367b565b60405180910390a3506000600b60006101000a81548160ff02191690831515021790555050505050505050565b60045481565b60006064600260149054906101000a900460ff1660ff1683612f7f919061440f565b612f899190614480565b9050919050565b604051806101200160405280600073ffffffffffffffffffffffffffffffffffffffff168152602001600073ffffffffffffffffffffffffffffffffffffffff168152602001600073ffffffffffffffffffffffffffffffffffffffff168152602001600081526020016000815260200160008152602001600081526020016000151581526020016000151581525090565b604051806101400160405280600073ffffffffffffffffffffffffffffffffffffffff168152602001600073ffffffffffffffffffffffffffffffffffffffff168152602001600073ffffffffffffffffffffffffffffffffffffffff16815260200160008152602001600073ffffffffffffffffffffffffffffffffffffffff1681526020016000815260200160008152602001600081526020016000151581526020016000151581525090565b600073ffffffffffffffffffffffffffffffffffffffff82169050919050565b60006130fc826130d1565b9050919050565b61310c816130f1565b82525050565b60006020820190506131276000830184613103565b92915050565b600080fd5b600080fd5b6000819050919050565b61314a81613137565b811461315557600080fd5b50565b60008135905061316781613141565b92915050565b600080604083850312156131845761318361312d565b5b600061319285828601613158565b92505060206131a385828601613158565b9150509250929050565b6131b6816130f1565b81146131c157600080fd5b50565b6000813590506131d3816131ad565b92915050565b600080600080608085870312156131f3576131f261312d565b5b6000613201878288016131c4565b945050602061321287828801613158565b9350506040613223878288016131c4565b925050606061323487828801613158565b91505092959194509250565b600060ff82169050919050565b61325681613240565b82525050565b6000602082019050613271600083018461324d565b92915050565b60006020828403121561328d5761328c61312d565b5b600061329b848285016131c4565b91505092915050565b6000602082840312156132ba576132b961312d565b5b60006132c884828501613158565b91505092915050565b6132da816130f1565b82525050565b6132e981613137565b82525050565b60008115159050919050565b613304816132ef565b82525050565b6101208201600082015161332160008501826132d1565b50602082015161333460208501826132d1565b50604082015161334760408501826132d1565b50606082015161335a60608501826132e0565b50608082015161336d60808501826132e0565b5060a082015161338060a08501826132e0565b5060c082015161339360c08501826132e0565b5060e08201516133a660e08501826132fb565b506101008201516133bb6101008501826132fb565b50505050565b6000610120820190506133d7600083018461330a565b92915050565b6133e6816132ef565b82525050565b600060208201905061340160008301846133dd565b92915050565b6000806000606084860312156134205761341f61312d565b5b600061342e86828701613158565b935050602061343f868287016131c4565b925050604061345086828701613158565b9150509250925092565b61346381613240565b811461346e57600080fd5b50565b6000813590506134808161345a565b92915050565b60006020828403121561349c5761349b61312d565b5b60006134aa84828501613471565b91505092915050565b610140820160008201516134ca60008501826132d1565b5060208201516134dd60208501826132d1565b5060408201516134f060408501826132d1565b50606082015161350360608501826132e0565b50608082015161351660808501826132d1565b5060a082015161352960a08501826132e0565b5060c082015161353c60c08501826132e0565b5060e082015161354f60e08501826132e0565b506101008201516135646101008501826132fb565b506101208201516135796101208501826132fb565b50505050565b60006101408201905061359560008301846134b3565b92915050565b600081519050919050565b600082825260208201905092915050565b6000819050602082019050919050565b60006135d383836132d1565b60208301905092915050565b6000602082019050919050565b60006135f78261359b565b61360181856135a6565b935061360c836135b7565b8060005b8381101561363d57815161362488826135c7565b975061362f836135df565b925050600181019050613610565b5085935050505092915050565b6000602082019050818103600083015261366481846135ec565b905092915050565b61367581613137565b82525050565b6000602082019050613690600083018461366c565b92915050565b600080fd5b600080fd5b600080fd5b60008083601f8401126136bb576136ba613696565b5b8235905067ffffffffffffffff8111156136d8576136d761369b565b5b6020830191508360018202830111156136f4576136f36136a0565b5b9250929050565b60008060008060008060006080888a03121561371a5761371961312d565b5b600088013567ffffffffffffffff81111561373857613737613132565b5b6137448a828b016136a5565b9750975050602088013567ffffffffffffffff81111561376757613766613132565b5b6137738a828b016136a5565b9550955050604088013567ffffffffffffffff81111561379657613795613132565b5b6137a28a828b016136a5565b935093505060606137b58a828b016131c4565b91505092959891949750929550565b600082825260208201905092915050565b7f4c6f636b65642100000000000000000000000000000000000000000000000000600082015250565b600061380b6007836137c4565b9150613816826137d5565b602082019050919050565b6000602082019050818103600083015261383a816137fe565b9050919050565b7f496e76616c6964206461746120656e7465726564210000000000000000000000600082015250565b60006138776015836137c4565b915061388282613841565b602082019050919050565b600060208201905081810360008301526138a68161386a565b9050919050565b7f4f6e6c792073656c6c2d6f72646572206f776e65722063616e2061636365707460008201527f2061206269642100000000000000000000000000000000000000000000000000602082015250565b60006139096027836137c4565b9150613914826138ad565b604082019050919050565b60006020820190508181036000830152613938816138fc565b9050919050565b7f53656c6c2d6f72646572206973206e6f7420617661696c6162652e0000000000600082015250565b6000613975601b836137c4565b91506139808261393f565b602082019050919050565b600060208201905081810360008301526139a481613968565b9050919050565b7f426964206973206e6f7420617661696c6162652e000000000000000000000000600082015250565b60006139e16014836137c4565b91506139ec826139ab565b602082019050919050565b60006020820190508181036000830152613a10816139d4565b9050919050565b7f4e487b7100000000000000000000000000000000000000000000000000000000600052601160045260246000fd5b6000613a5182613137565b9150613a5c83613137565b9250828203905081811115613a7457613a73613a17565b5b92915050565b6000606082019050613a8f6000830186613103565b613a9c6020830185613103565b613aa9604083018461366c565b949350505050565b600081519050613ac0816131ad565b92915050565b600060208284031215613adc57613adb61312d565b5b6000613aea84828501613ab1565b91505092915050565b7f536f6d7468696e672077656e742077726f6e672120506c65617365207472792060008201527f616761696e206c617465722e0000000000000000000000000000000000000000602082015250565b6000613b4f602c836137c4565b9150613b5a82613af3565b604082019050919050565b60006020820190508181036000830152613b7e81613b42565b9050919050565b6000604082019050613b9a6000830185613103565b613ba7602083018461366c565b9392505050565b613bb7816132ef565b8114613bc257600080fd5b50565b600081519050613bd481613bae565b92915050565b600060208284031215613bf057613bef61312d565b5b6000613bfe84828501613bc5565b91505092915050565b7f536f6d7468696e672077656e742077726f6e6721000000000000000000000000600082015250565b6000613c3d6014836137c4565b9150613c4882613c07565b602082019050919050565b60006020820190508181036000830152613c6c81613c30565b9050919050565b6000604082019050613c88600083018561366c565b613c95602083018461366c565b9392505050565b7f496e76616c696420636f6e747261637420616464726573732100000000000000600082015250565b6000613cd26019836137c4565b9150613cdd82613c9c565b602082019050919050565b60006020820190508181036000830152613d0181613cc5565b9050919050565b7f496e76616c696420746f6b656e20616464726573732100000000000000000000600082015250565b6000613d3e6016836137c4565b9150613d4982613d08565b602082019050919050565b60006020820190508181036000830152613d6d81613d31565b9050919050565b7f4f6e6c79206f776e65722063616e2063726561746520612073656c6c2d6f726460008201527f65722e0000000000000000000000000000000000000000000000000000000000602082015250565b6000613dd06023836137c4565b9150613ddb82613d74565b604082019050919050565b60006020820190508181036000830152613dff81613dc3565b9050919050565b6000613e1182613137565b9150613e1c83613137565b9250828201905080821115613e3457613e33613a17565b5b92915050565b7f4f6e6c79206f776e65722e000000000000000000000000000000000000000000600082015250565b6000613e70600b836137c4565b9150613e7b82613e3a565b602082019050919050565b60006020820190508181036000830152613e9f81613e63565b9050919050565b7f496e76616c6964206f7264657221000000000000000000000000000000000000600082015250565b6000613edc600e836137c4565b9150613ee782613ea6565b602082019050919050565b60006020820190508181036000830152613f0b81613ecf565b9050919050565b7f4f72646572206973206e6f7420617661696c61626c652e000000000000000000600082015250565b6000613f486017836137c4565b9150613f5382613f12565b602082019050919050565b60006020820190508181036000830152613f7781613f3b565b9050919050565b7f496e76616c69642070726963652e000000000000000000000000000000000000600082015250565b6000613fb4600e836137c4565b9150613fbf82613f7e565b602082019050919050565b60006020820190508181036000830152613fe381613fa7565b9050919050565b7f4f72646572206e6f7420666f756e642100000000000000000000000000000000600082015250565b60006140206010836137c4565b915061402b82613fea565b602082019050919050565b6000602082019050818103600083015261404f81614013565b9050919050565b7f4f72646572206973206e6f742061636365737369626c652e0000000000000000600082015250565b600061408c6018836137c4565b915061409782614056565b602082019050919050565b600060208201905081810360008301526140bb8161407f565b9050919050565b7f596f752063616e6e6f742063726561746520612062696420666f7220796f757260008201527f73656c662073656c6c2d6f726465722100000000000000000000000000000000602082015250565b600061411e6030836137c4565b9150614129826140c2565b604082019050919050565b6000602082019050818103600083015261414d81614111565b9050919050565b7f496e76616c6964206269642e0000000000000000000000000000000000000000600082015250565b600061418a600c836137c4565b915061419582614154565b602082019050919050565b600060208201905081810360008301526141b98161417d565b9050919050565b7f426964206973206e6f7420617661696c61626c652e0000000000000000000000600082015250565b60006141f66015836137c4565b9150614201826141c0565b602082019050919050565b60006020820190508181036000830152614225816141e9565b9050919050565b7f496e76616c696420666163746f72792061646472657373210000000000000000600082015250565b60006142626018836137c4565b915061426d8261422c565b602082019050919050565b6000602082019050818103600083015261429181614255565b9050919050565b7f43616e6e6f74206465706c6f7920636f6e747261637420616761696e21000000600082015250565b60006142ce601d836137c4565b91506142d982614298565b602082019050919050565b600060208201905081810360008301526142fd816142c1565b9050919050565b7f496e76616c6964206461746120656e6574657264210000000000000000000000600082015250565b600061433a6015836137c4565b915061434582614304565b602082019050919050565b600060208201905081810360008301526143698161432d565b9050919050565b82818337600083830152505050565b6000601f19601f8301169050919050565b600061439c83856137c4565b93506143a9838584614370565b6143b28361437f565b840190509392505050565b600060608201905081810360008301526143d881888a614390565b905081810360208301526143ed818688614390565b90508181036040830152614402818486614390565b9050979650505050505050565b600061441a82613137565b915061442583613137565b925082820261443381613137565b9150828204841483151761444a57614449613a17565b5b5092915050565b7f4e487b7100000000000000000000000000000000000000000000000000000000600052601260045260246000fd5b600061448b82613137565b915061449683613137565b9250826144a6576144a5614451565b5b82820490509291505056fea2646970667358221220291f0e7cc1a62cccf2158bea7b3beb0ebcca14bcb90d921549a10640948109fd64736f6c63430008110033",
  "immutableReferences": {},
  "source": "// SPDX-License-Identifier: GPL-3.0\r\npragma solidity ^0.8.0;\r\n\r\n//! Marketplace related interfaces /////////////////////////////////////////////////////////////////////\r\ninterface IERC721 {\r\n    event Transfer(address indexed from, address indexed to, uint256 indexed tokenId);\r\n    event Approval(address indexed owner, address indexed approved, uint256 indexed tokenId);\r\n    event ApprovalForAll(address indexed owner, address indexed operator, bool approved);\r\n\r\n    function balanceOf(address owner) external view returns(uint256 balance);\r\n    function ownerOf(uint256 tokenId) external view returns(address owner);\r\n    function safeTransferFrom(address from, address to, uint256 tokenId, bytes calldata data) external;\r\n    function safeTransferFrom(address from, address to, uint256 tokenId) external;\r\n    function transferFrom(address from, address to, uint256 tokenId) external;\r\n    function approve(address to, uint256 tokenId) external;\r\n    function setApprovalForAll(address operator, bool _approved) external;\r\n    function getApproved(uint256 tokenId) external view returns(address operator);\r\n    function isApprovedForAll(address owner, address operator) external view returns(bool);\r\n}\r\n\r\ninterface IERC20 {\r\n    function balanceOf(address account) external view returns(uint256);\r\n    function transfer(address to, uint256 amount) external returns(bool);\r\n    function allowance(address owner, address spender) external view returns(uint256);\r\n    function approve(address spender, uint256 amount) external returns(bool);\r\n    function transferFrom(address from, address to, uint256 amount) external returns(bool);\r\n    function decimals() external view returns(uint8);\r\n}\r\n\r\ninterface IFactory {\r\n    function deploy(\r\n        string calldata _collectionName,\r\n        string calldata _collectionSymbol,\r\n        string calldata _collectionDescription\r\n    ) external returns(address);\r\n}\r\n//! ////////////////////////////////////////////////////////////////////////////////////////////////////\r\n\r\ncontract MarketPlace {\r\n    error DelegateCallError();\r\n\r\n    //! Marketplace error ///////////\r\n    error ExternalCallError();\r\n    //! /////////////////////////////\r\n\r\n    address public factory;\r\n\r\n    address public proxyOwner;\r\n    // address public implementation;\r\n\r\n    address public marketFeeTaker;\r\n    uint8 public marketFee;\r\n\r\n    address[] public tokens;\r\n\r\n    struct SellOrder {\r\n        address seller;\r\n        address token;\r\n        address contractAddr;\r\n        uint256 nftId;\r\n        address buyer;\r\n        uint256 price;\r\n        uint256 startedAt;\r\n        uint256 endedAt;\r\n        bool isCanceled;\r\n        bool isEnded;\r\n    }\r\n    uint256 public sellOrderCount = 1;\r\n\r\n    struct Bid {\r\n        address bidder;\r\n        address token;\r\n        address nftOwner;\r\n        uint256 sellOrderId;\r\n        uint256 price;\r\n        uint256 biddedAt;\r\n        uint256 bidEndedAt;\r\n        bool isCanceled;\r\n        bool isEnded;\r\n    }\r\n    uint256 public bidCount = 1;\r\n\r\n    // from sell-order id to sell-order info\r\n    mapping (uint256 => SellOrder) private sellOrders;\r\n    // from bid id to bid info\r\n    mapping (uint256 => Bid) private bids;\r\n    // from user to his/her created ERC721 created contract\r\n    mapping (address => address) private userContract;\r\n    // monitor all contracts which created in the markeplace\r\n    mapping (address => bool) private allContracts;\r\n    // monitor all validated and confirmed tokens\r\n    mapping (address => bool) private marketTokens;\r\n     \r\n    constructor(\r\n        uint8 _marketFee,\r\n        address _marketFeeTaker,\r\n        address[] memory _tokens,\r\n        address _factory\r\n    ) {\r\n        proxyOwner = msg.sender;\r\n\r\n        factory = _factory;\r\n        marketFee = _marketFee;\r\n        marketFeeTaker = _marketFeeTaker;\r\n\r\n        require(_tokens.length > 0, \"At least one token needed!\");\r\n        for (uint256 i; i < _tokens.length; ++i) {\r\n            require(marketTokens[_tokens[i]] == false, \"Duplicate token.\");\r\n\r\n            marketTokens[_tokens[i]] = true;\r\n            tokens.push(_tokens[i]);\r\n        }\r\n    }\r\n\r\n    modifier onlyOwner() {\r\n        require(msg.sender == proxyOwner, \"Only owner.\");\r\n        _;\r\n    }\r\n\r\n    // interact with the implementation contract\r\n    // fallback() external payable {\r\n    //     (bool result, ) = implementation.delegatecall(msg.data);\r\n\r\n    //     if (result == false) {\r\n    //         revert DelegateCallError();\r\n    //     }\r\n    // }\r\n    // change marketplace state\r\n\r\n    //! Marketplace Implementation V1 ///////////////////////////////////////////////\r\n    //* Events\r\n    event SellOrderCreated(address indexed creator, uint256 indexed orderId, uint256 time);\r\n    event BidCreated(address indexed bidder, address indexed contractAddr, uint256 indexed nftId, uint bidId, uint256 time);\r\n    event BidCanceled(address indexed bidder, uint256 indexed bidId, uint256 indexed orderId, uint256 time);\r\n    event SellOrderCanceled(address indexed seller, uint256 indexed orderId, uint256 time);\r\n    event NFTContractCreated(address indexed creator, address indexed contractAddr, uint256 time);\r\n    event BidAccepted(address indexed seller, address indexed buyer, uint256 indexed orderId, uint256 bidId, uint256 time);\r\n    //*\r\n\r\n    // guard\r\n    bool isLocked;\r\n    modifier NonReentrant() {\r\n        require(isLocked == false, \"Locked!\");\r\n        isLocked = true;\r\n        _;\r\n        isLocked = false;\r\n    }\r\n\r\n    function _computeFee(\r\n        uint256 _price\r\n    ) private view returns(uint256) {\r\n        return ((_price * marketFee) / 100);\r\n    }\r\n\r\n    /// @dev user can create a sell-order on the market by calling this function\r\n    /// @param _contractAddr the contract address that user has some nft and wants to create sell-order for that\r\n    /// @param _nftId the nft that user wants to sell\r\n    /// @param _token the currency that user wants to use (it must be a valid token in marketplace)\r\n    /// @param _price the price of this sell-order\r\n    /// note before creating sell-order user must approve marketplace contract to access his/her nft\r\n    function createSellOrder(\r\n        address _contractAddr,\r\n        uint256 _nftId,\r\n        address _token,\r\n        uint256 _price\r\n    ) external {\r\n        require(allContracts[_contractAddr] == true, \"Invalid contract address!\");\r\n        require(marketTokens[_token] == true, \"Invalid token address!\");\r\n        IERC721 nft = IERC721(_contractAddr);\r\n        require(nft.ownerOf(_nftId) == msg.sender, \"Only owner can create a sell-order.\");\r\n\r\n        try nft.transferFrom(msg.sender, address(this), _nftId) {\r\n            require(nft.ownerOf(_nftId) == address(this), \"Somthing went wrong!\");\r\n\r\n            SellOrder memory sellOrder = SellOrder({\r\n                seller: msg.sender,\r\n                token: _token,\r\n                contractAddr: _contractAddr,\r\n                nftId: _nftId,\r\n                buyer: address(0),\r\n                price: _price,\r\n                startedAt: block.timestamp,\r\n                endedAt: 0,\r\n                isCanceled: false,\r\n                isEnded: false\r\n            });\r\n\r\n            sellOrders[sellOrderCount] = sellOrder;\r\n\r\n            sellOrderCount += 1;\r\n\r\n            emit SellOrderCreated({\r\n                creator: msg.sender,\r\n                orderId: sellOrderCount - 1,\r\n                time: block.timestamp\r\n            });\r\n        } catch {\r\n            revert ExternalCallError();\r\n        }\r\n    }\r\n\r\n    /// @dev user can create a bid for a arbitrary nft by calling this function\r\n    /// @param _orderId the order-id that user wants to make a bid for that\r\n    /// @param _token the currency that user wants to pay with\r\n    /// @param _price the price of the bid user wishes to make for the order\r\n    /// note before creating bid user must approve marketplace contract to access his/her tokens\r\n    function createBid(\r\n        uint256 _orderId,\r\n        address _token,\r\n        uint256 _price /// note token amount must be in decimal format\r\n    ) external NonReentrant {\r\n        require(marketTokens[_token] == true, \"Invalid token address!\");\r\n        require(_price > 0, \"Invalid price.\");\r\n        SellOrder memory order = sellOrders[_orderId];\r\n        require(order.seller != address(0), \"Order not found!\");\r\n        require(order.isCanceled == false && order.isEnded == false, \"Order is not accessible.\");\r\n        require(order.seller != msg.sender, \"You cannot create a bid for yourself sell-order!\");\r\n\r\n        IERC20 token = IERC20(_token);\r\n\r\n        try token.transferFrom(msg.sender, address(this), _price) returns(bool result) {\r\n            require(result == true, \"Somthing went wrong!\");\r\n\r\n            Bid memory bid = Bid({\r\n                bidder: msg.sender,\r\n                token: _token,\r\n                nftOwner: order.seller,\r\n                sellOrderId: _orderId,\r\n                price: _price,\r\n                biddedAt: block.timestamp,\r\n                bidEndedAt: 0,\r\n                isCanceled: false,\r\n                isEnded: false\r\n            });\r\n\r\n            bids[bidCount] = bid;\r\n\r\n            bidCount += 1;\r\n\r\n            emit BidCreated({\r\n                bidder: msg.sender,\r\n                contractAddr: order.contractAddr,\r\n                nftId: order.nftId,\r\n                bidId: bidCount - 1,\r\n                time: block.timestamp\r\n            });\r\n        } catch {\r\n            revert ExternalCallError();\r\n        }\r\n    }\r\n\r\n    /// @dev when the user who created a sell-order for the nft wants to accept a bid he must call this function\r\n    /// @param _bidId the id's of bid that the sell-order's creator accepted\r\n    /// @param _orderId the id's of the sell-order\r\n    /// note the bid or order must not be ended or canceled before calling this function\r\n    function acceptBid(\r\n        uint256 _bidId,\r\n        uint256 _orderId\r\n    ) external NonReentrant {\r\n        Bid storage bid = bids[_bidId];\r\n        SellOrder storage order = sellOrders[_orderId];\r\n        require(bid.bidder != address(0) && order.seller != address(0), \"Invalid data entered!\");\r\n        require(order.seller == msg.sender, \"Only sell-order owner can accept a bid!\");\r\n        require(order.isCanceled == false && order.isEnded == false, \"Sell-order is not availabe.\");\r\n        require(bid.isCanceled == false && bid.isEnded == false, \"Bid is not availabe.\");\r\n\r\n        // update order struct\r\n        order.buyer = bid.bidder;\r\n        order.isEnded = true;\r\n        order.endedAt = block.timestamp;\r\n        // update bid struct\r\n        bid.bidEndedAt = block.timestamp;\r\n        bid.isEnded = true;\r\n        // compute seller and marketplace share then transfer token to seller and nft to the buyer\r\n        uint totalToken = bid.price;\r\n        uint marketplaceShare = _computeFee(totalToken);\r\n        uint sellerShare = totalToken - marketplaceShare;\r\n        // create instances of erc20 & erc721\r\n        IERC20 token = IERC20(bid.token);\r\n        IERC721 nft = IERC721(order.contractAddr);\r\n        // transfer funds and nft\r\n        try nft.transferFrom(address(this), bid.bidder, order.nftId) {\r\n            require(nft.ownerOf(order.nftId) == bid.bidder, \"Somthing went wrong! Please try again later.\");\r\n\r\n            try token.transfer(msg.sender, sellerShare) returns(bool result1) {\r\n                require(result1 == true, \"Somthing went wrong!\");\r\n\r\n                try token.transfer(marketFeeTaker, marketplaceShare) returns(bool result2) {\r\n                    require(result2 == true, \"Somthing went wrong!\");\r\n\r\n                    emit BidAccepted({\r\n                        seller: msg.sender,\r\n                        buyer: bid.bidder,\r\n                        orderId: _orderId,\r\n                        bidId: _bidId,\r\n                        time: block.timestamp\r\n                    });\r\n                } catch {\r\n                    revert ExternalCallError();\r\n                } \r\n            } catch {\r\n                revert ExternalCallError();\r\n            } \r\n        } catch {\r\n            revert ExternalCallError();\r\n        }\r\n    }\r\n\r\n    /// @dev user can cancel his/her bid\r\n    function cancelBid(\r\n        uint256 _bidId\r\n    ) external NonReentrant {\r\n        Bid storage bid = bids[_bidId];\r\n        require(bid.bidder == msg.sender, \"Invalid bid.\");\r\n        require(bid.isEnded == false && bid.isCanceled == false, \"Bid is not available.\");\r\n\r\n        bid.isCanceled = true;\r\n        bid.bidEndedAt = block.timestamp;\r\n\r\n        uint tokenToTransder = bid.price;\r\n        IERC20 token = IERC20(bid.token);\r\n\r\n        try token.transfer(msg.sender, tokenToTransder) returns(bool res) {\r\n            require(res == true, \"Somthing went wrong!\");\r\n\r\n            emit BidCanceled({\r\n                bidder: msg.sender,\r\n                bidId: _bidId,\r\n                orderId: bid.sellOrderId,\r\n                time: block.timestamp\r\n            });\r\n        } catch {\r\n            revert ExternalCallError();\r\n        }\r\n    }\r\n\r\n    /// @dev user can cancel his/her sell-order\r\n    function cancelSellOrder(\r\n        uint256 _orderId\r\n    ) external NonReentrant {\r\n        SellOrder storage order = sellOrders[_orderId];\r\n        require(order.seller == msg.sender, \"Invalid order!\");\r\n        require(order.isCanceled == false && order.isEnded == false, \"Order is not available.\");\r\n\r\n        order.isCanceled = true;\r\n        order.endedAt = block.timestamp;\r\n        \r\n        uint256 nftId = order.nftId;\r\n        IERC721 nft = IERC721(order.contractAddr);\r\n\r\n        try nft.transferFrom(address(this), msg.sender, nftId) {\r\n            require(nft.ownerOf(nftId) == msg.sender, \"Somthing went wrong!\");\r\n\r\n            emit SellOrderCanceled({\r\n                seller: msg.sender,\r\n                orderId: _orderId,\r\n                time: block.timestamp\r\n            });\r\n        } catch {\r\n            revert ExternalCallError();\r\n        }\r\n    }\r\n\r\n    /// @dev each wallet can create a full-owned NFT contract for them selves by calling this function\r\n    function createERC721Contract(\r\n        string calldata _collectionName,\r\n        string calldata _collectionSymbol,\r\n        string calldata _collectionDescription,\r\n        address _factory\r\n    ) external NonReentrant {\r\n        require(_factory == factory, \"Invalid factory address!\");\r\n        require(userContract[msg.sender] == address(0), \"Cannot deploy contract again!\");\r\n        require(\r\n            bytes(_collectionName).length > 0 &&\r\n            bytes(_collectionSymbol).length > 0 &&\r\n            bytes(_collectionDescription).length > 0,\r\n            \"Invalid data eneterd!\"\r\n        );\r\n\r\n        address nft = IFactory(_factory).deploy(\r\n            _collectionName,\r\n            _collectionSymbol,\r\n            _collectionDescription\r\n        );\r\n        userContract[msg.sender] = nft;\r\n        allContracts[nft] = true;\r\n\r\n        emit NFTContractCreated({\r\n            creator: msg.sender,\r\n            contractAddr: nft,\r\n            time: block.timestamp\r\n        });\r\n    }\r\n    //! /////////////////////////////////////////////////////////////////////////////\r\n\r\n    // function upgradeImpelementation(\r\n    //     address _newImp\r\n    // ) external onlyOwner {\r\n    //     implementation = _newImp;\r\n    // }\r\n\r\n    function changeOwner(\r\n        address _newOwner\r\n    ) external onlyOwner {\r\n        proxyOwner = _newOwner;\r\n    }\r\n\r\n    function changeMarketFee(\r\n        uint8 _newFee\r\n    ) external onlyOwner {\r\n        marketFee = _newFee;\r\n    }\r\n\r\n    function changeMarketFeeTaker(\r\n        address _newFeeTaker\r\n    ) external onlyOwner {\r\n        marketFeeTaker = _newFeeTaker;\r\n    }\r\n\r\n    function changeFactory(\r\n        address _newFactory\r\n    ) external onlyOwner {\r\n        factory = _newFactory;\r\n    }\r\n    // getters\r\n    function sellOrder(\r\n        uint256 _sellOrderId\r\n    ) external view returns(SellOrder memory) {\r\n        return sellOrders[_sellOrderId];\r\n    }\r\n\r\n    function bid(\r\n        uint256 _bidId\r\n    ) external view returns(Bid memory) {\r\n        return bids[_bidId];\r\n    }\r\n\r\n    function getUserContract(\r\n        address _user\r\n    ) external view returns(address) {\r\n        return address(userContract[_user]);\r\n    } \r\n\r\n    function getTokens() external view returns(address[] memory) {\r\n        return tokens;\r\n    }\r\n\r\n    function isValid(address _target) external view returns(bool) {\r\n        return allContracts[_target];\r\n    }\r\n}",
  "sourcePath": "C:\\Users\\PooriaGg\\Desktop\\Project-OpenSea\\Marketplace_Test\\Implementation_V1_Test\\contracts\\ImpV1.sol",
  "compiler": {
    "name": "solc",
    "version": "0.8.17+commit.8df45f5f.Emscripten.clang"
  },
  "schemaVersion": "3.4.11",
  "updatedAt": "2023-01-12T13:10:51.044Z",
  "devdoc": {
    "kind": "dev",
    "methods": {
      "acceptBid(uint256,uint256)": {
        "details": "when the user who created a sell-order for the nft wants to accept a bid he must call this function",
        "params": {
          "_bidId": "the id's of bid that the sell-order's creator accepted",
          "_orderId": "the id's of the sell-order note the bid or order must not be ended or canceled before calling this function"
        }
      },
      "cancelBid(uint256)": {
        "details": "user can cancel his/her bid"
      },
      "cancelSellOrder(uint256)": {
        "details": "user can cancel his/her sell-order"
      },
      "createBid(uint256,address,uint256)": {
        "details": "user can create a bid for a arbitrary nft by calling this function",
        "params": {
          "_orderId": "the order-id that user wants to make a bid for that",
          "_price": "the price of the bid user wishes to make for the order note before creating bid user must approve marketplace contract to access his/her tokens",
          "_token": "the currency that user wants to pay with"
        }
      },
      "createERC721Contract(string,string,string,address)": {
        "details": "each wallet can create a full-owned NFT contract for them selves by calling this function"
      },
      "createSellOrder(address,uint256,address,uint256)": {
        "details": "user can create a sell-order on the market by calling this function",
        "params": {
          "_contractAddr": "the contract address that user has some nft and wants to create sell-order for that",
          "_nftId": "the nft that user wants to sell",
          "_price": "the price of this sell-order note before creating sell-order user must approve marketplace contract to access his/her nft",
          "_token": "the currency that user wants to use (it must be a valid token in marketplace)"
        }
      }
    },
    "version": 1
  },
  "userdoc": {
    "kind": "user",
    "methods": {},
    "version": 1
  }
}