{
  "contractName": "NFTCollection",
  "abi": [
    {
      "inputs": [
        {
          "internalType": "string",
          "name": "_collectionName",
          "type": "string"
        },
        {
          "internalType": "string",
          "name": "_collectionSymbol",
          "type": "string"
        },
        {
          "internalType": "string",
          "name": "_collectionDescription",
          "type": "string"
        },
        {
          "internalType": "address",
          "name": "_owner",
          "type": "address"
        }
      ],
      "stateMutability": "nonpayable",
      "type": "constructor"
    },
    {
      "inputs": [],
      "name": "UnsafeTransfer",
      "type": "error"
    },
    {
      "anonymous": false,
      "inputs": [
        {
          "indexed": true,
          "internalType": "address",
          "name": "owner",
          "type": "address"
        },
        {
          "indexed": true,
          "internalType": "address",
          "name": "approved",
          "type": "address"
        },
        {
          "indexed": true,
          "internalType": "uint256",
          "name": "tokenId",
          "type": "uint256"
        }
      ],
      "name": "Approval",
      "type": "event"
    },
    {
      "anonymous": false,
      "inputs": [
        {
          "indexed": true,
          "internalType": "address",
          "name": "owner",
          "type": "address"
        },
        {
          "indexed": true,
          "internalType": "address",
          "name": "operator",
          "type": "address"
        },
        {
          "indexed": false,
          "internalType": "bool",
          "name": "approved",
          "type": "bool"
        }
      ],
      "name": "ApprovalForAll",
      "type": "event"
    },
    {
      "anonymous": false,
      "inputs": [
        {
          "indexed": true,
          "internalType": "address",
          "name": "from",
          "type": "address"
        },
        {
          "indexed": true,
          "internalType": "address",
          "name": "to",
          "type": "address"
        },
        {
          "indexed": true,
          "internalType": "uint256",
          "name": "tokenId",
          "type": "uint256"
        }
      ],
      "name": "Transfer",
      "type": "event"
    },
    {
      "inputs": [
        {
          "internalType": "address",
          "name": "_to",
          "type": "address"
        },
        {
          "internalType": "uint256",
          "name": "_tokenId",
          "type": "uint256"
        }
      ],
      "name": "approve",
      "outputs": [],
      "stateMutability": "nonpayable",
      "type": "function"
    },
    {
      "inputs": [
        {
          "internalType": "address",
          "name": "_target",
          "type": "address"
        }
      ],
      "name": "balanceOf",
      "outputs": [
        {
          "internalType": "uint256",
          "name": "",
          "type": "uint256"
        }
      ],
      "stateMutability": "view",
      "type": "function"
    },
    {
      "inputs": [
        {
          "internalType": "uint256",
          "name": "_tokenId",
          "type": "uint256"
        }
      ],
      "name": "burn",
      "outputs": [
        {
          "internalType": "bool",
          "name": "",
          "type": "bool"
        }
      ],
      "stateMutability": "nonpayable",
      "type": "function"
    },
    {
      "inputs": [],
      "name": "description",
      "outputs": [
        {
          "internalType": "string",
          "name": "",
          "type": "string"
        }
      ],
      "stateMutability": "view",
      "type": "function"
    },
    {
      "inputs": [
        {
          "internalType": "uint256",
          "name": "_tokenId",
          "type": "uint256"
        }
      ],
      "name": "getApproved",
      "outputs": [
        {
          "internalType": "address",
          "name": "operator",
          "type": "address"
        }
      ],
      "stateMutability": "view",
      "type": "function"
    },
    {
      "inputs": [],
      "name": "getCollectionTotalNFT",
      "outputs": [
        {
          "internalType": "uint256",
          "name": "",
          "type": "uint256"
        }
      ],
      "stateMutability": "view",
      "type": "function"
    },
    {
      "inputs": [],
      "name": "getOwner",
      "outputs": [
        {
          "internalType": "address",
          "name": "",
          "type": "address"
        }
      ],
      "stateMutability": "view",
      "type": "function"
    },
    {
      "inputs": [],
      "name": "getTokenCount",
      "outputs": [
        {
          "internalType": "uint256",
          "name": "",
          "type": "uint256"
        }
      ],
      "stateMutability": "view",
      "type": "function"
    },
    {
      "inputs": [
        {
          "internalType": "address",
          "name": "_owner",
          "type": "address"
        },
        {
          "internalType": "address",
          "name": "_operator",
          "type": "address"
        }
      ],
      "name": "isApprovedForAll",
      "outputs": [
        {
          "internalType": "bool",
          "name": "",
          "type": "bool"
        }
      ],
      "stateMutability": "view",
      "type": "function"
    },
    {
      "inputs": [
        {
          "internalType": "string",
          "name": "_tokenURI",
          "type": "string"
        }
      ],
      "name": "mint",
      "outputs": [
        {
          "internalType": "bool",
          "name": "",
          "type": "bool"
        }
      ],
      "stateMutability": "nonpayable",
      "type": "function"
    },
    {
      "inputs": [],
      "name": "name",
      "outputs": [
        {
          "internalType": "string",
          "name": "",
          "type": "string"
        }
      ],
      "stateMutability": "view",
      "type": "function"
    },
    {
      "inputs": [
        {
          "internalType": "address",
          "name": "operator",
          "type": "address"
        },
        {
          "internalType": "address",
          "name": "from",
          "type": "address"
        },
        {
          "internalType": "uint256",
          "name": "tokenId",
          "type": "uint256"
        },
        {
          "internalType": "bytes",
          "name": "data",
          "type": "bytes"
        }
      ],
      "name": "onERC721Received",
      "outputs": [
        {
          "internalType": "bytes4",
          "name": "",
          "type": "bytes4"
        }
      ],
      "stateMutability": "pure",
      "type": "function"
    },
    {
      "inputs": [
        {
          "internalType": "uint256",
          "name": "_tokenId",
          "type": "uint256"
        }
      ],
      "name": "ownerOf",
      "outputs": [
        {
          "internalType": "address",
          "name": "",
          "type": "address"
        }
      ],
      "stateMutability": "view",
      "type": "function"
    },
    {
      "inputs": [
        {
          "internalType": "address",
          "name": "_from",
          "type": "address"
        },
        {
          "internalType": "address",
          "name": "_to",
          "type": "address"
        },
        {
          "internalType": "uint256",
          "name": "_tokenId",
          "type": "uint256"
        }
      ],
      "name": "safeTransferFrom",
      "outputs": [],
      "stateMutability": "nonpayable",
      "type": "function"
    },
    {
      "inputs": [
        {
          "internalType": "address",
          "name": "_from",
          "type": "address"
        },
        {
          "internalType": "address",
          "name": "_to",
          "type": "address"
        },
        {
          "internalType": "uint256",
          "name": "_tokenId",
          "type": "uint256"
        },
        {
          "internalType": "bytes",
          "name": "_data",
          "type": "bytes"
        }
      ],
      "name": "safeTransferFrom",
      "outputs": [],
      "stateMutability": "nonpayable",
      "type": "function"
    },
    {
      "inputs": [
        {
          "internalType": "address",
          "name": "_operator",
          "type": "address"
        },
        {
          "internalType": "bool",
          "name": "_approved",
          "type": "bool"
        }
      ],
      "name": "setApprovalForAll",
      "outputs": [],
      "stateMutability": "nonpayable",
      "type": "function"
    },
    {
      "inputs": [
        {
          "internalType": "bytes4",
          "name": "interfaceId",
          "type": "bytes4"
        }
      ],
      "name": "supportsInterface",
      "outputs": [
        {
          "internalType": "bool",
          "name": "",
          "type": "bool"
        }
      ],
      "stateMutability": "pure",
      "type": "function"
    },
    {
      "inputs": [],
      "name": "symbol",
      "outputs": [
        {
          "internalType": "string",
          "name": "",
          "type": "string"
        }
      ],
      "stateMutability": "view",
      "type": "function"
    },
    {
      "inputs": [
        {
          "internalType": "uint256",
          "name": "_tokenId",
          "type": "uint256"
        }
      ],
      "name": "tokenURI",
      "outputs": [
        {
          "internalType": "string",
          "name": "",
          "type": "string"
        }
      ],
      "stateMutability": "view",
      "type": "function"
    },
    {
      "inputs": [
        {
          "internalType": "address",
          "name": "_from",
          "type": "address"
        },
        {
          "internalType": "address",
          "name": "_to",
          "type": "address"
        },
        {
          "internalType": "uint256",
          "name": "_tokenId",
          "type": "uint256"
        }
      ],
      "name": "transferFrom",
      "outputs": [],
      "stateMutability": "nonpayable",
      "type": "function"
    }
  ],
  "bytecode": "0x6080604052600180553480156200001557600080fd5b5060405162002e5a38038062002e5a83398181016040528101906200003b9190620002bb565b83838383806000806101000a81548173ffffffffffffffffffffffffffffffffffffffff021916908373ffffffffffffffffffffffffffffffffffffffff1602179055508360039081620000909190620005d5565b508260049081620000a29190620005d5565b508160059081620000b49190620005d5565b505050505050505050620006bc565b6000604051905090565b600080fd5b600080fd5b600080fd5b600080fd5b6000601f19601f8301169050919050565b7f4e487b7100000000000000000000000000000000000000000000000000000000600052604160045260246000fd5b6200012c82620000e1565b810181811067ffffffffffffffff821117156200014e576200014d620000f2565b5b80604052505050565b600062000163620000c3565b905062000171828262000121565b919050565b600067ffffffffffffffff821115620001945762000193620000f2565b5b6200019f82620000e1565b9050602081019050919050565b60005b83811015620001cc578082015181840152602081019050620001af565b60008484015250505050565b6000620001ef620001e98462000176565b62000157565b9050828152602081018484840111156200020e576200020d620000dc565b5b6200021b848285620001ac565b509392505050565b600082601f8301126200023b576200023a620000d7565b5b81516200024d848260208601620001d8565b91505092915050565b600073ffffffffffffffffffffffffffffffffffffffff82169050919050565b6000620002838262000256565b9050919050565b620002958162000276565b8114620002a157600080fd5b50565b600081519050620002b5816200028a565b92915050565b60008060008060808587031215620002d857620002d7620000cd565b5b600085015167ffffffffffffffff811115620002f957620002f8620000d2565b5b620003078782880162000223565b945050602085015167ffffffffffffffff8111156200032b576200032a620000d2565b5b620003398782880162000223565b935050604085015167ffffffffffffffff8111156200035d576200035c620000d2565b5b6200036b8782880162000223565b92505060606200037e87828801620002a4565b91505092959194509250565b600081519050919050565b7f4e487b7100000000000000000000000000000000000000000000000000000000600052602260045260246000fd5b60006002820490506001821680620003dd57607f821691505b602082108103620003f357620003f262000395565b5b50919050565b60008190508160005260206000209050919050565b60006020601f8301049050919050565b600082821b905092915050565b6000600883026200045d7fffffffffffffffffffffffffffffffffffffffffffffffffffffffffffffffff826200041e565b6200046986836200041e565b95508019841693508086168417925050509392505050565b6000819050919050565b6000819050919050565b6000620004b6620004b0620004aa8462000481565b6200048b565b62000481565b9050919050565b6000819050919050565b620004d28362000495565b620004ea620004e182620004bd565b8484546200042b565b825550505050565b600090565b62000501620004f2565b6200050e818484620004c7565b505050565b5b8181101562000536576200052a600082620004f7565b60018101905062000514565b5050565b601f82111562000585576200054f81620003f9565b6200055a846200040e565b810160208510156200056a578190505b6200058262000579856200040e565b83018262000513565b50505b505050565b600082821c905092915050565b6000620005aa600019846008026200058a565b1980831691505092915050565b6000620005c5838362000597565b9150826002028217905092915050565b620005e0826200038a565b67ffffffffffffffff811115620005fc57620005fb620000f2565b5b620006088254620003c4565b620006158282856200053a565b600060209050601f8311600181146200064d576000841562000638578287015190505b620006448582620005b7565b865550620006b4565b601f1984166200065d86620003f9565b60005b82811015620006875784890151825560018201915060208501945060208101905062000660565b86831015620006a75784890151620006a3601f89168262000597565b8355505b6001600288020188555050505b505050505050565b61278e80620006cc6000396000f3fe608060405234801561001057600080fd5b506004361061012c5760003560e01c80637284e416116100ad578063b88d4fde11610071578063b88d4fde14610357578063c87b56dd14610373578063d85d3d27146103a3578063e985e9c5146103d3578063efd3183c146104035761012c565b80637284e416146102c357806378a89567146102e1578063893d20e8146102ff57806395d89b411461031d578063a22cb4651461033b5761012c565b806323b872dd116100f457806323b872dd146101fb57806342842e0e1461021757806342966c68146102335780636352211e1461026357806370a08231146102935761012c565b806301ffc9a71461013157806306fdde0314610161578063081812fc1461017f578063095ea7b3146101af578063150b7a02146101cb575b600080fd5b61014b600480360381019061014691906118ae565b610421565b60405161015891906118f6565b60405180910390f35b6101696104f3565b60405161017691906119a1565b60405180910390f35b610199600480360381019061019491906119f9565b610585565b6040516101a69190611a67565b60405180910390f35b6101c960048036038101906101c49190611aae565b6105c2565b005b6101e560048036038101906101e09190611b53565b6108e4565b6040516101f29190611bea565b60405180910390f35b61021560048036038101906102109190611c05565b6108f9565b005b610231600480360381019061022c9190611c05565b610c8c565b005b61024d600480360381019061024891906119f9565b610cb7565b60405161025a91906118f6565b60405180910390f35b61027d600480360381019061027891906119f9565b610f10565b60405161028a9190611a67565b60405180910390f35b6102ad60048036038101906102a89190611c58565b610f4d565b6040516102ba9190611c94565b60405180910390f35b6102cb610f96565b6040516102d891906119a1565b60405180910390f35b6102e9611028565b6040516102f69190611c94565b60405180910390f35b610307611032565b6040516103149190611a67565b60405180910390f35b61032561105b565b60405161033291906119a1565b60405180910390f35b61035560048036038101906103509190611cdb565b6110ed565b005b610371600480360381019061036c9190611b53565b6112cd565b005b61038d600480360381019061038891906119f9565b61132f565b60405161039a91906119a1565b60405180910390f35b6103bd60048036038101906103b89190611d71565b6113d4565b6040516103ca91906118f6565b60405180910390f35b6103ed60048036038101906103e89190611dbe565b61161c565b6040516103fa91906118f6565b60405180910390f35b61040b6116b0565b6040516104189190611c94565b60405180910390f35b60007f80ac58cd000000000000000000000000000000000000000000000000000000007bffffffffffffffffffffffffffffffffffffffffffffffffffffffff1916827bffffffffffffffffffffffffffffffffffffffffffffffffffffffff191614806104ec57507f5b5e139f000000000000000000000000000000000000000000000000000000007bffffffffffffffffffffffffffffffffffffffffffffffffffffffff1916827bffffffffffffffffffffffffffffffffffffffffffffffffffffffff1916145b9050919050565b60606003805461050290611e2d565b80601f016020809104026020016040519081016040528092919081815260200182805461052e90611e2d565b801561057b5780601f106105505761010080835404028352916020019161057b565b820191906000526020600020905b81548152906001019060200180831161055e57829003601f168201915b5050505050905090565b60006009600083815260200190815260200160002060009054906101000a900473ffffffffffffffffffffffffffffffffffffffff169050919050565b600115156105cf826116ba565b151514610611576040517f08c379a000000000000000000000000000000000000000000000000000000000815260040161060890611eaa565b60405180910390fd5b60006007600083815260200190815260200160002060009054906101000a900473ffffffffffffffffffffffffffffffffffffffff16905060003390508073ffffffffffffffffffffffffffffffffffffffff168273ffffffffffffffffffffffffffffffffffffffff161480610715575060011515600a60008473ffffffffffffffffffffffffffffffffffffffff1673ffffffffffffffffffffffffffffffffffffffff16815260200190815260200160002060008373ffffffffffffffffffffffffffffffffffffffff1673ffffffffffffffffffffffffffffffffffffffff16815260200190815260200160002060009054906101000a900460ff161515145b610754576040517f08c379a000000000000000000000000000000000000000000000000000000000815260040161074b90611f16565b60405180910390fd5b600073ffffffffffffffffffffffffffffffffffffffff168473ffffffffffffffffffffffffffffffffffffffff16036107c3576040517f08c379a00000000000000000000000000000000000000000000000000000000081526004016107ba90611f82565b60405180910390fd5b8173ffffffffffffffffffffffffffffffffffffffff168473ffffffffffffffffffffffffffffffffffffffff1603610831576040517f08c379a000000000000000000000000000000000000000000000000000000000815260040161082890611fee565b60405180910390fd5b836009600085815260200190815260200160002060006101000a81548173ffffffffffffffffffffffffffffffffffffffff021916908373ffffffffffffffffffffffffffffffffffffffff160217905550828473ffffffffffffffffffffffffffffffffffffffff168273ffffffffffffffffffffffffffffffffffffffff167f8c5be1e5ebec7d5bd14f71427d1e84f3dd0314c0f7b2291e5b200ac8c7c3b92560405160405180910390a450505050565b600063150b7a0260e01b905095945050505050565b60011515610906826116ba565b151514610948576040517f08c379a000000000000000000000000000000000000000000000000000000000815260040161093f90611eaa565b60405180910390fd5b60006007600083815260200190815260200160002060009054906101000a900473ffffffffffffffffffffffffffffffffffffffff16905060003390508073ffffffffffffffffffffffffffffffffffffffff168273ffffffffffffffffffffffffffffffffffffffff161480610a1d57508073ffffffffffffffffffffffffffffffffffffffff166009600085815260200190815260200160002060009054906101000a900473ffffffffffffffffffffffffffffffffffffffff1673ffffffffffffffffffffffffffffffffffffffff16145b80610ab5575060011515600a60008473ffffffffffffffffffffffffffffffffffffffff1673ffffffffffffffffffffffffffffffffffffffff16815260200190815260200160002060008373ffffffffffffffffffffffffffffffffffffffff1673ffffffffffffffffffffffffffffffffffffffff16815260200190815260200160002060009054906101000a900460ff161515145b610af4576040517f08c379a0000000000000000000000000000000000000000000000000000000008152600401610aeb9061205a565b60405180910390fd5b836007600085815260200190815260200160002060006101000a81548173ffffffffffffffffffffffffffffffffffffffff021916908373ffffffffffffffffffffffffffffffffffffffff1602179055506001600860008473ffffffffffffffffffffffffffffffffffffffff1673ffffffffffffffffffffffffffffffffffffffff1681526020019081526020016000206000828254610b9691906120a9565b925050819055506001600860008673ffffffffffffffffffffffffffffffffffffffff1673ffffffffffffffffffffffffffffffffffffffff1681526020019081526020016000206000828254610bed91906120dd565b925050819055506009600084815260200190815260200160002060006101000a81549073ffffffffffffffffffffffffffffffffffffffff0219169055828473ffffffffffffffffffffffffffffffffffffffff168673ffffffffffffffffffffffffffffffffffffffff167fddf252ad1be2c89b69c2b068fc378daa952ba7f163c4a11628f55a4df523b3ef60405160405180910390a45050505050565b610c978383836108f9565b610cb283838360405180602001604052806000815250611726565b505050565b600060011515610cc6836116ba565b151514610d08576040517f08c379a0000000000000000000000000000000000000000000000000000000008152600401610cff9061215d565b60405180910390fd5b60003390508073ffffffffffffffffffffffffffffffffffffffff166007600085815260200190815260200160002060009054906101000a900473ffffffffffffffffffffffffffffffffffffffff1673ffffffffffffffffffffffffffffffffffffffff1614610dae576040517f08c379a0000000000000000000000000000000000000000000000000000000008152600401610da5906121c9565b60405180910390fd5b600160026000828254610dc191906120a9565b92505081905550600060076000600154815260200190815260200160002060006101000a81548173ffffffffffffffffffffffffffffffffffffffff021916908373ffffffffffffffffffffffffffffffffffffffff1602179055506001600860008373ffffffffffffffffffffffffffffffffffffffff1673ffffffffffffffffffffffffffffffffffffffff1681526020019081526020016000206000828254610e6d91906120a9565b925050819055506009600084815260200190815260200160002060006101000a81549073ffffffffffffffffffffffffffffffffffffffff021916905582600073ffffffffffffffffffffffffffffffffffffffff168273ffffffffffffffffffffffffffffffffffffffff167fddf252ad1be2c89b69c2b068fc378daa952ba7f163c4a11628f55a4df523b3ef60405160405180910390a46001915050919050565b60006007600083815260200190815260200160002060009054906101000a900473ffffffffffffffffffffffffffffffffffffffff169050919050565b6000600860008373ffffffffffffffffffffffffffffffffffffffff1673ffffffffffffffffffffffffffffffffffffffff168152602001908152602001600020549050919050565b606060058054610fa590611e2d565b80601f0160208091040260200160405190810160405280929190818152602001828054610fd190611e2d565b801561101e5780601f10610ff35761010080835404028352916020019161101e565b820191906000526020600020905b81548152906001019060200180831161100157829003601f168201915b5050505050905090565b6000600154905090565b60008060009054906101000a900473ffffffffffffffffffffffffffffffffffffffff16905090565b60606004805461106a90611e2d565b80601f016020809104026020016040519081016040528092919081815260200182805461109690611e2d565b80156110e35780601f106110b8576101008083540402835291602001916110e3565b820191906000526020600020905b8154815290600101906020018083116110c657829003601f168201915b5050505050905090565b600073ffffffffffffffffffffffffffffffffffffffff168273ffffffffffffffffffffffffffffffffffffffff160361115c576040517f08c379a000000000000000000000000000000000000000000000000000000000815260040161115390612235565b60405180910390fd5b60003390508273ffffffffffffffffffffffffffffffffffffffff168173ffffffffffffffffffffffffffffffffffffffff16036111cf576040517f08c379a00000000000000000000000000000000000000000000000000000000081526004016111c6906122c7565b60405180910390fd5b81600a60008373ffffffffffffffffffffffffffffffffffffffff1673ffffffffffffffffffffffffffffffffffffffff16815260200190815260200160002060008573ffffffffffffffffffffffffffffffffffffffff1673ffffffffffffffffffffffffffffffffffffffff16815260200190815260200160002060006101000a81548160ff0219169083151502179055508273ffffffffffffffffffffffffffffffffffffffff168173ffffffffffffffffffffffffffffffffffffffff167f17307eab39ab6107e8899845ad3d59bd9653f200f220920489ca2b5937696c31846040516112c091906118f6565b60405180910390a3505050565b6112d88585856108f9565b61132885858585858080601f016020809104026020016040519081016040528093929190818152602001838380828437600081840152601f19601f82011690508083019250505050505050611726565b5050505050565b606060066000838152602001908152602001600020805461134f90611e2d565b80601f016020809104026020016040519081016040528092919081815260200182805461137b90611e2d565b80156113c85780601f1061139d576101008083540402835291602001916113c8565b820191906000526020600020905b8154815290600101906020018083116113ab57829003601f168201915b50505050509050919050565b60008060009054906101000a900473ffffffffffffffffffffffffffffffffffffffff1673ffffffffffffffffffffffffffffffffffffffff163373ffffffffffffffffffffffffffffffffffffffff1614611465576040517f08c379a000000000000000000000000000000000000000000000000000000000815260040161145c90612333565b60405180910390fd5b600083839050116114ab576040517f08c379a00000000000000000000000000000000000000000000000000000000081526004016114a29061239f565b60405180910390fd5b60003390506001600260008282546114c391906120dd565b92505081905550838360066000600154815260200190815260200160002091826114ee9291906125a5565b508060076000600154815260200190815260200160002060006101000a81548173ffffffffffffffffffffffffffffffffffffffff021916908373ffffffffffffffffffffffffffffffffffffffff1602179055506001600860008373ffffffffffffffffffffffffffffffffffffffff1673ffffffffffffffffffffffffffffffffffffffff168152602001908152602001600020600082825461159391906120dd565b925050819055506001548173ffffffffffffffffffffffffffffffffffffffff16600073ffffffffffffffffffffffffffffffffffffffff167fddf252ad1be2c89b69c2b068fc378daa952ba7f163c4a11628f55a4df523b3ef60405160405180910390a4600180600082825461160a91906120dd565b92505081905550600191505092915050565b6000600a60008473ffffffffffffffffffffffffffffffffffffffff1673ffffffffffffffffffffffffffffffffffffffff16815260200190815260200160002060008373ffffffffffffffffffffffffffffffffffffffff1673ffffffffffffffffffffffffffffffffffffffff16815260200190815260200160002060009054906101000a900460ff16905092915050565b6000600254905090565b60008073ffffffffffffffffffffffffffffffffffffffff166007600084815260200190815260200160002060009054906101000a900473ffffffffffffffffffffffffffffffffffffffff1673ffffffffffffffffffffffffffffffffffffffff1614159050919050565b60008373ffffffffffffffffffffffffffffffffffffffff163b11156118465763150b7a0260e01b7bffffffffffffffffffffffffffffffffffffffffffffffffffffffff19168373ffffffffffffffffffffffffffffffffffffffff1663150b7a02338786866040518563ffffffff1660e01b81526004016117ac94939291906126ca565b6020604051808303816000875af11580156117cb573d6000803e3d6000fd5b505050506040513d601f19601f820116820180604052508101906117ef919061272b565b7bffffffffffffffffffffffffffffffffffffffffffffffffffffffff191614611845576040517f39a437ed00000000000000000000000000000000000000000000000000000000815260040160405180910390fd5b5b50505050565b600080fd5b600080fd5b60007fffffffff0000000000000000000000000000000000000000000000000000000082169050919050565b61188b81611856565b811461189657600080fd5b50565b6000813590506118a881611882565b92915050565b6000602082840312156118c4576118c361184c565b5b60006118d284828501611899565b91505092915050565b60008115159050919050565b6118f0816118db565b82525050565b600060208201905061190b60008301846118e7565b92915050565b600081519050919050565b600082825260208201905092915050565b60005b8381101561194b578082015181840152602081019050611930565b60008484015250505050565b6000601f19601f8301169050919050565b600061197382611911565b61197d818561191c565b935061198d81856020860161192d565b61199681611957565b840191505092915050565b600060208201905081810360008301526119bb8184611968565b905092915050565b6000819050919050565b6119d6816119c3565b81146119e157600080fd5b50565b6000813590506119f3816119cd565b92915050565b600060208284031215611a0f57611a0e61184c565b5b6000611a1d848285016119e4565b91505092915050565b600073ffffffffffffffffffffffffffffffffffffffff82169050919050565b6000611a5182611a26565b9050919050565b611a6181611a46565b82525050565b6000602082019050611a7c6000830184611a58565b92915050565b611a8b81611a46565b8114611a9657600080fd5b50565b600081359050611aa881611a82565b92915050565b60008060408385031215611ac557611ac461184c565b5b6000611ad385828601611a99565b9250506020611ae4858286016119e4565b9150509250929050565b600080fd5b600080fd5b600080fd5b60008083601f840112611b1357611b12611aee565b5b8235905067ffffffffffffffff811115611b3057611b2f611af3565b5b602083019150836001820283011115611b4c57611b4b611af8565b5b9250929050565b600080600080600060808688031215611b6f57611b6e61184c565b5b6000611b7d88828901611a99565b9550506020611b8e88828901611a99565b9450506040611b9f888289016119e4565b935050606086013567ffffffffffffffff811115611bc057611bbf611851565b5b611bcc88828901611afd565b92509250509295509295909350565b611be481611856565b82525050565b6000602082019050611bff6000830184611bdb565b92915050565b600080600060608486031215611c1e57611c1d61184c565b5b6000611c2c86828701611a99565b9350506020611c3d86828701611a99565b9250506040611c4e868287016119e4565b9150509250925092565b600060208284031215611c6e57611c6d61184c565b5b6000611c7c84828501611a99565b91505092915050565b611c8e816119c3565b82525050565b6000602082019050611ca96000830184611c85565b92915050565b611cb8816118db565b8114611cc357600080fd5b50565b600081359050611cd581611caf565b92915050565b60008060408385031215611cf257611cf161184c565b5b6000611d0085828601611a99565b9250506020611d1185828601611cc6565b9150509250929050565b60008083601f840112611d3157611d30611aee565b5b8235905067ffffffffffffffff811115611d4e57611d4d611af3565b5b602083019150836001820283011115611d6a57611d69611af8565b5b9250929050565b60008060208385031215611d8857611d8761184c565b5b600083013567ffffffffffffffff811115611da657611da5611851565b5b611db285828601611d1b565b92509250509250929050565b60008060408385031215611dd557611dd461184c565b5b6000611de385828601611a99565b9250506020611df485828601611a99565b9150509250929050565b7f4e487b7100000000000000000000000000000000000000000000000000000000600052602260045260246000fd5b60006002820490506001821680611e4557607f821691505b602082108103611e5857611e57611dfe565b5b50919050565b7f546f6b656e20646f65736e277420657869737421000000000000000000000000600082015250565b6000611e9460148361191c565b9150611e9f82611e5e565b602082019050919050565b60006020820190508181036000830152611ec381611e87565b9050919050565b7f496e76616c696420616363657373000000000000000000000000000000000000600082015250565b6000611f00600e8361191c565b9150611f0b82611eca565b602082019050919050565b60006020820190508181036000830152611f2f81611ef3565b9050919050565b7f496e76616c696420746172676574206164647265737300000000000000000000600082015250565b6000611f6c60168361191c565b9150611f7782611f36565b602082019050919050565b60006020820190508181036000830152611f9b81611f5f565b9050919050565b7f43616e6e6f7420617070726f766520746f2063757272656e74206f776e657200600082015250565b6000611fd8601f8361191c565b9150611fe382611fa2565b602082019050919050565b6000602082019050818103600083015261200781611fcb565b9050919050565b7f596f752063616e6e6f7420616363657373000000000000000000000000000000600082015250565b600061204460118361191c565b915061204f8261200e565b602082019050919050565b6000602082019050818103600083015261207381612037565b9050919050565b7f4e487b7100000000000000000000000000000000000000000000000000000000600052601160045260246000fd5b60006120b4826119c3565b91506120bf836119c3565b92508282039050818111156120d7576120d661207a565b5b92915050565b60006120e8826119c3565b91506120f3836119c3565b925082820190508082111561210b5761210a61207a565b5b92915050565b7f546f6b656e20646f6573206e6f74206578697374000000000000000000000000600082015250565b600061214760148361191c565b915061215282612111565b602082019050919050565b600060208201905081810360008301526121768161213a565b9050919050565b7f596f7520617265206e6f7420746865206f776e65720000000000000000000000600082015250565b60006121b360158361191c565b91506121be8261217d565b602082019050919050565b600060208201905081810360008301526121e2816121a6565b9050919050565b7f496e76616c6964206f70657261746f7200000000000000000000000000000000600082015250565b600061221f60108361191c565b915061222a826121e9565b602082019050919050565b6000602082019050818103600083015261224e81612212565b9050919050565b7f43616e6e6f7420617070726f7665466f72416c6c20746f2063757272656e742060008201527f6f776e6572000000000000000000000000000000000000000000000000000000602082015250565b60006122b160258361191c565b91506122bc82612255565b604082019050919050565b600060208201905081810360008301526122e0816122a4565b9050919050565b7f4f6e6c79206f776e657200000000000000000000000000000000000000000000600082015250565b600061231d600a8361191c565b9150612328826122e7565b602082019050919050565b6000602082019050818103600083015261234c81612310565b9050919050565b7f496e76616c696420746f6b656e20555249000000000000000000000000000000600082015250565b600061238960118361191c565b915061239482612353565b602082019050919050565b600060208201905081810360008301526123b88161237c565b9050919050565b600082905092915050565b7f4e487b7100000000000000000000000000000000000000000000000000000000600052604160045260246000fd5b60008190508160005260206000209050919050565b60006020601f8301049050919050565b600082821b905092915050565b60006008830261245b7fffffffffffffffffffffffffffffffffffffffffffffffffffffffffffffffff8261241e565b612465868361241e565b95508019841693508086168417925050509392505050565b6000819050919050565b60006124a261249d612498846119c3565b61247d565b6119c3565b9050919050565b6000819050919050565b6124bc83612487565b6124d06124c8826124a9565b84845461242b565b825550505050565b600090565b6124e56124d8565b6124f08184846124b3565b505050565b5b81811015612514576125096000826124dd565b6001810190506124f6565b5050565b601f8211156125595761252a816123f9565b6125338461240e565b81016020851015612542578190505b61255661254e8561240e565b8301826124f5565b50505b505050565b600082821c905092915050565b600061257c6000198460080261255e565b1980831691505092915050565b6000612595838361256b565b9150826002028217905092915050565b6125af83836123bf565b67ffffffffffffffff8111156125c8576125c76123ca565b5b6125d28254611e2d565b6125dd828285612518565b6000601f83116001811461260c57600084156125fa578287013590505b6126048582612589565b86555061266c565b601f19841661261a866123f9565b60005b828110156126425784890135825560018201915060208501945060208101905061261d565b8683101561265f578489013561265b601f89168261256b565b8355505b6001600288020188555050505b50505050505050565b600081519050919050565b600082825260208201905092915050565b600061269c82612675565b6126a68185612680565b93506126b681856020860161192d565b6126bf81611957565b840191505092915050565b60006080820190506126df6000830187611a58565b6126ec6020830186611a58565b6126f96040830185611c85565b818103606083015261270b8184612691565b905095945050505050565b60008151905061272581611882565b92915050565b6000602082840312156127415761274061184c565b5b600061274f84828501612716565b9150509291505056fea26469706673582212203c815995f91bd20fb0a1f65c35c5e2904885e3a1732653187a3f8625d030309264736f6c63430008110033",
  "immutableReferences": {},
  "source": "// SPDX-License-Identifier: GPL-3.0\r\npragma solidity ^0.8.0;\r\n\r\ninterface IERC721 {\r\n    event Transfer(address indexed from, address indexed to, uint256 indexed tokenId);\r\n    event Approval(address indexed owner, address indexed approved, uint256 indexed tokenId);\r\n    event ApprovalForAll(address indexed owner, address indexed operator, bool approved);\r\n\r\n    function balanceOf(address owner) external view returns(uint256 balance);\r\n    function ownerOf(uint256 tokenId) external view returns(address owner);\r\n    function safeTransferFrom(address from, address to, uint256 tokenId, bytes calldata data) external;\r\n    function safeTransferFrom(address from, address to, uint256 tokenId) external;\r\n    function transferFrom(address from, address to, uint256 tokenId) external;\r\n    function approve(address to, uint256 tokenId) external;\r\n    function setApprovalForAll(address operator, bool _approved) external;\r\n    function getApproved(uint256 tokenId) external view returns(address operator);\r\n    function isApprovedForAll(address owner, address operator) external view returns(bool);\r\n}\r\n\r\ninterface IERC721Metadata is IERC721 {\r\n    function name() external view returns(string memory);\r\n    function symbol() external view returns(string memory);\r\n    function tokenURI(uint tokenId) external view returns(string memory);\r\n}\r\n\r\ninterface IERC165 {\r\n    function supportsInterface(bytes4 interfaceId) external view returns(bool);\r\n}\r\n\r\ninterface IERC721Receiver {\r\n    function onERC721Received(\r\n        address operator,\r\n        address from,\r\n        uint256 tokenId,\r\n        bytes calldata data\r\n    ) external returns(bytes4);\r\n}\r\n\r\ncontract ERC721 is IERC721Metadata, IERC721Receiver, IERC165 {\r\n    error UnsafeTransfer();\r\n\r\n    address internal owner;\r\n    uint private tokenCount = 1;\r\n    uint private collectionTotalNFT;\r\n\r\n    string private collectionName;\r\n    string private collectionSymbol;\r\n    string private collectionDescription;\r\n\r\n    // from token_id to token_URI\r\n    mapping(uint => string) private _tokenMetadata;\r\n    // from token_id to token owner\r\n    mapping(uint => address) private _ownerOf;\r\n    // from owner to his/her owned tokens amount\r\n    mapping(address => uint) private _balances;\r\n    // from token_id to approveed operator for it\r\n    mapping(uint => address) private _tokenApprovals;\r\n    // from owner address to approved operator\r\n    mapping(address => mapping(address => bool)) private _operatorApprovals;\r\n\r\n    constructor(\r\n        string memory _collectionName,\r\n        string memory _collectionSymbol,\r\n        string memory _collectionDescription,\r\n        address _owner\r\n    ) {\r\n        owner = _owner;\r\n        collectionName = _collectionName;\r\n        collectionSymbol = _collectionSymbol;\r\n        collectionDescription = _collectionDescription;\r\n    }\r\n\r\n    modifier onlyOwner() {\r\n        require(msg.sender == owner, \"Only owner\");\r\n        _;\r\n    }\r\n\r\n    function getOwner() external view returns(address) {\r\n        return owner;\r\n    }\r\n\r\n    function getTokenCount() external view returns(uint) {\r\n        return tokenCount;\r\n    }\r\n\r\n    function getCollectionTotalNFT() external view returns(uint) {\r\n        return collectionTotalNFT;\r\n    }\r\n\r\n    function name() external view returns(string memory) {\r\n        return collectionName;\r\n    }\r\n\r\n    function symbol() external view returns(string memory) {\r\n        return collectionSymbol;\r\n    }\r\n\r\n    function tokenURI(uint _tokenId) external view returns(string memory){\r\n        return _tokenMetadata[_tokenId];\r\n    }\r\n\r\n    function ownerOf(uint _tokenId) external view returns(address) {\r\n        return _ownerOf[_tokenId];\r\n    }\r\n\r\n    function balanceOf(address _target) external view returns(uint) {\r\n        return _balances[_target];\r\n    }\r\n\r\n    function description() external view returns(string memory) {\r\n        return collectionDescription;\r\n    }\r\n\r\n    function getApproved(uint _tokenId) external view returns(address operator) {\r\n        operator = _tokenApprovals[_tokenId];\r\n    }\r\n\r\n    function isApprovedForAll(address _owner, address _operator) external view returns(bool) {\r\n        return _operatorApprovals[_owner][_operator];\r\n    }\r\n\r\n    function supportsInterface(bytes4 interfaceId) external pure returns(bool) {\r\n        return interfaceId == type(IERC721).interfaceId || \r\n               interfaceId == type(IERC721Metadata).interfaceId;\r\n    }\r\n\r\n    function _exists(uint _tokenId) internal view returns(bool) {\r\n        return _ownerOf[_tokenId] != address(0);\r\n    }\r\n\r\n    function mint(string calldata _tokenURI) external onlyOwner returns(bool) {\r\n        require(bytes(_tokenURI).length > 0, \"Invalid token URI\");\r\n        address msgSender = msg.sender;\r\n\r\n        collectionTotalNFT += 1;\r\n\r\n        _tokenMetadata[tokenCount] = _tokenURI;\r\n        _ownerOf[tokenCount] = msgSender;\r\n        _balances[msgSender] += 1;\r\n\r\n        emit Transfer({\r\n            from: address(0),\r\n            to: msgSender,\r\n            tokenId: tokenCount\r\n        });\r\n\r\n        tokenCount += 1;\r\n\r\n        return true;\r\n    }\r\n\r\n    function burn(uint _tokenId) external returns(bool) {\r\n        require(_exists(_tokenId) == true, \"Token does not exist\");\r\n        address msgSender = msg.sender;\r\n        require(_ownerOf[_tokenId] == msgSender, \"You are not the owner\");\r\n\r\n        collectionTotalNFT -= 1;\r\n\r\n        _ownerOf[tokenCount] = address(0);\r\n        _balances[msgSender] -= 1;\r\n        delete _tokenApprovals[_tokenId];\r\n        \r\n        emit Transfer({\r\n            from: msgSender,\r\n            to: address(0),\r\n            tokenId: _tokenId\r\n        });\r\n\r\n        return true;\r\n    }\r\n\r\n    function transferFrom(address _from, address _to, uint _tokenId) public {\r\n        require(_exists(_tokenId) == true, \"Token doesn't exist!\");\r\n        address tokenOwner = _ownerOf[_tokenId];\r\n        address msgSender = msg.sender;\r\n        require(\r\n            tokenOwner == msgSender ||\r\n            _tokenApprovals[_tokenId] == msgSender ||\r\n            _operatorApprovals[tokenOwner][msgSender] == true,\r\n            \"You cannot access\"\r\n        );\r\n\r\n        _ownerOf[_tokenId] = _to;\r\n\r\n        _balances[tokenOwner] -= 1;\r\n        _balances[_to] += 1;\r\n\r\n        delete _tokenApprovals[_tokenId];\r\n\r\n        emit Transfer({\r\n            from: _from,\r\n            to: _to,\r\n            tokenId: _tokenId\r\n        });\r\n    }\r\n\r\n    function approve(address _to, uint256 _tokenId) external {\r\n        require(_exists(_tokenId) == true, \"Token doesn't exist!\");\r\n        address tokenOwner = _ownerOf[_tokenId];\r\n        address msgSender = msg.sender;\r\n        require(\r\n            tokenOwner == msgSender ||\r\n            _operatorApprovals[tokenOwner][msgSender] == true,\r\n            \"Invalid access\"\r\n        );\r\n        require(_to != address(0), \"Invalid target address\");\r\n        require(_to != tokenOwner, \"Cannot approve to current owner\");\r\n\r\n        _tokenApprovals[_tokenId] = _to;\r\n\r\n        emit Approval({\r\n            owner: msgSender,\r\n            approved: _to,\r\n            tokenId: _tokenId\r\n        });\r\n    }\r\n\r\n    function setApprovalForAll(address _operator, bool _approved) external {\r\n        require(_operator != address(0), \"Invalid operator\");\r\n        address msgSender = msg.sender;\r\n        require(msgSender != _operator, \"Cannot approveForAll to current owner\");\r\n\r\n        _operatorApprovals[msgSender][_operator] = _approved;\r\n\r\n        emit ApprovalForAll({\r\n            owner: msgSender,\r\n            operator: _operator,\r\n            approved: _approved\r\n        });\r\n    }\r\n\r\n    function safeTransferFrom(\r\n        address _from,\r\n        address _to,\r\n        uint256 _tokenId,\r\n        bytes calldata _data\r\n    ) external {\r\n        transferFrom(_from, _to, _tokenId);\r\n\r\n        _checkSafity(_from, _to, _tokenId, _data);\r\n    }\r\n    \r\n    function safeTransferFrom(address _from, address _to, uint256 _tokenId) external {\r\n        transferFrom(_from, _to, _tokenId);\r\n\r\n        _checkSafity(_from, _to, _tokenId, \"\");\r\n    }\r\n\r\n    function _checkSafity(\r\n        address _from,\r\n        address _to,\r\n        uint _tokenId,\r\n        bytes memory _data\r\n    ) private {\r\n        if (_to.code.length > 0) {\r\n            if (\r\n                IERC721Receiver(_to).onERC721Received(msg.sender, _from, _tokenId, _data) != \r\n                IERC721Receiver.onERC721Received.selector\r\n            ) {\r\n                revert UnsafeTransfer();\r\n            }\r\n        }\r\n    }\r\n\r\n    function onERC721Received(\r\n        address operator,\r\n        address from,\r\n        uint256 tokenId,\r\n        bytes calldata data\r\n    ) external pure returns(bytes4) {\r\n        return IERC721Receiver.onERC721Received.selector;\r\n    }\r\n}\r\n\r\ncontract NFTCollection is ERC721 {\r\n    constructor(\r\n        string memory _collectionName,\r\n        string memory _collectionSymbol,\r\n        string memory _collectionDescription,\r\n        address _owner\r\n    ) ERC721(_collectionName, _collectionSymbol, _collectionDescription, _owner) {\r\n        //\r\n    }\r\n}\r\n\r\ncontract Factory {\r\n    event Deployed(address indexed contractAddr, address indexed caller, uint256 indexed time);\r\n\r\n    function deploy(\r\n        string calldata _collectionName,\r\n        string calldata _collectionSymbol,\r\n        string calldata _collectionDescription\r\n    ) external returns(address) {\r\n        NFTCollection nft = new NFTCollection(\r\n            _collectionName,\r\n            _collectionSymbol,\r\n            _collectionDescription,\r\n            tx.origin\r\n        );\r\n        require(address(nft) != address(0), \"Somthing went wrong.\");\r\n\r\n        emit Deployed(address(nft), tx.origin, block.timestamp);\r\n\r\n        return address(nft);\r\n    }\r\n}",
  "sourcePath": "C:\\Users\\PooriaGg\\Desktop\\Project-OpenSea\\Marketplace_Test\\Implementation_V1_Test\\contracts\\Factory.sol",
  "compiler": {
    "name": "solc",
    "version": "0.8.17+commit.8df45f5f.Emscripten.clang"
  },
  "schemaVersion": "3.4.11",
  "updatedAt": "2023-01-12T13:10:51.023Z",
  "devdoc": {
    "kind": "dev",
    "methods": {},
    "version": 1
  },
  "userdoc": {
    "kind": "user",
    "methods": {},
    "version": 1
  }
}