{
  "contractName": "Token",
  "abi": [
    {
      "inputs": [
        {
          "internalType": "string",
          "name": "tokenName",
          "type": "string"
        },
        {
          "internalType": "string",
          "name": "tokenSymbol",
          "type": "string"
        },
        {
          "internalType": "uint8",
          "name": "tokenDecimals",
          "type": "uint8"
        },
        {
          "internalType": "uint256",
          "name": "tokenTotalSupply",
          "type": "uint256"
        }
      ],
      "stateMutability": "nonpayable",
      "type": "constructor"
    },
    {
      "anonymous": false,
      "inputs": [
        {
          "indexed": true,
          "internalType": "address",
          "name": "owner",
          "type": "address"
        },
        {
          "indexed": true,
          "internalType": "address",
          "name": "spender",
          "type": "address"
        },
        {
          "indexed": false,
          "internalType": "uint256",
          "name": "value",
          "type": "uint256"
        }
      ],
      "name": "Approval",
      "type": "event"
    },
    {
      "anonymous": false,
      "inputs": [
        {
          "indexed": true,
          "internalType": "address",
          "name": "from",
          "type": "address"
        },
        {
          "indexed": true,
          "internalType": "address",
          "name": "to",
          "type": "address"
        },
        {
          "indexed": false,
          "internalType": "uint256",
          "name": "value",
          "type": "uint256"
        }
      ],
      "name": "Transfer",
      "type": "event"
    },
    {
      "inputs": [
        {
          "internalType": "address",
          "name": "_owner",
          "type": "address"
        },
        {
          "internalType": "address",
          "name": "_spender",
          "type": "address"
        }
      ],
      "name": "allowance",
      "outputs": [
        {
          "internalType": "uint256",
          "name": "",
          "type": "uint256"
        }
      ],
      "stateMutability": "view",
      "type": "function"
    },
    {
      "inputs": [
        {
          "internalType": "address",
          "name": "_spender",
          "type": "address"
        },
        {
          "internalType": "uint256",
          "name": "_amount",
          "type": "uint256"
        }
      ],
      "name": "approve",
      "outputs": [
        {
          "internalType": "bool",
          "name": "",
          "type": "bool"
        }
      ],
      "stateMutability": "nonpayable",
      "type": "function"
    },
    {
      "inputs": [
        {
          "internalType": "address",
          "name": "_account",
          "type": "address"
        }
      ],
      "name": "balanceOf",
      "outputs": [
        {
          "internalType": "uint256",
          "name": "",
          "type": "uint256"
        }
      ],
      "stateMutability": "view",
      "type": "function"
    },
    {
      "inputs": [],
      "name": "decimals",
      "outputs": [
        {
          "internalType": "uint8",
          "name": "",
          "type": "uint8"
        }
      ],
      "stateMutability": "view",
      "type": "function"
    },
    {
      "inputs": [],
      "name": "name",
      "outputs": [
        {
          "internalType": "string",
          "name": "",
          "type": "string"
        }
      ],
      "stateMutability": "view",
      "type": "function"
    },
    {
      "inputs": [
        {
          "internalType": "bytes4",
          "name": "_interfaceId",
          "type": "bytes4"
        }
      ],
      "name": "supportsInterface",
      "outputs": [
        {
          "internalType": "bool",
          "name": "",
          "type": "bool"
        }
      ],
      "stateMutability": "pure",
      "type": "function"
    },
    {
      "inputs": [],
      "name": "symbol",
      "outputs": [
        {
          "internalType": "string",
          "name": "",
          "type": "string"
        }
      ],
      "stateMutability": "view",
      "type": "function"
    },
    {
      "inputs": [],
      "name": "totalSupply",
      "outputs": [
        {
          "internalType": "uint256",
          "name": "",
          "type": "uint256"
        }
      ],
      "stateMutability": "view",
      "type": "function"
    },
    {
      "inputs": [
        {
          "internalType": "address",
          "name": "_to",
          "type": "address"
        },
        {
          "internalType": "uint256",
          "name": "_amount",
          "type": "uint256"
        }
      ],
      "name": "transfer",
      "outputs": [
        {
          "internalType": "bool",
          "name": "",
          "type": "bool"
        }
      ],
      "stateMutability": "nonpayable",
      "type": "function"
    },
    {
      "inputs": [
        {
          "internalType": "address",
          "name": "_from",
          "type": "address"
        },
        {
          "internalType": "address",
          "name": "_to",
          "type": "address"
        },
        {
          "internalType": "uint256",
          "name": "_amount",
          "type": "uint256"
        }
      ],
      "name": "transferFrom",
      "outputs": [
        {
          "internalType": "bool",
          "name": "",
          "type": "bool"
        }
      ],
      "stateMutability": "nonpayable",
      "type": "function"
    },
    {
      "inputs": [
        {
          "internalType": "address",
          "name": "_to",
          "type": "address"
        },
        {
          "internalType": "uint256",
          "name": "_amount",
          "type": "uint256"
        }
      ],
      "name": "mint",
      "outputs": [
        {
          "internalType": "bool",
          "name": "",
          "type": "bool"
        }
      ],
      "stateMutability": "nonpayable",
      "type": "function"
    },
    {
      "inputs": [
        {
          "internalType": "uint256",
          "name": "_amount",
          "type": "uint256"
        }
      ],
      "name": "burn",
      "outputs": [
        {
          "internalType": "bool",
          "name": "",
          "type": "bool"
        }
      ],
      "stateMutability": "nonpayable",
      "type": "function"
    },
    {
      "inputs": [
        {
          "internalType": "address",
          "name": "_newOwner",
          "type": "address"
        }
      ],
      "name": "changeOwner",
      "outputs": [],
      "stateMutability": "nonpayable",
      "type": "function"
    },
    {
      "inputs": [],
      "name": "getOwner",
      "outputs": [
        {
          "internalType": "address",
          "name": "",
          "type": "address"
        }
      ],
      "stateMutability": "view",
      "type": "function"
    }
  ],
  "bytecode": "0x60a06040523480156200001157600080fd5b506040516200217838038062002178833981810160405281019062000037919062000312565b8383838383600290816200004c919062000603565b5082600390816200005e919062000603565b508160ff1660808160ff168152505080600481905550806000803373ffffffffffffffffffffffffffffffffffffffff1673ffffffffffffffffffffffffffffffffffffffff168152602001908152602001600020819055505050505033600560006101000a81548173ffffffffffffffffffffffffffffffffffffffff021916908373ffffffffffffffffffffffffffffffffffffffff16021790555050505050620006ea565b6000604051905090565b600080fd5b600080fd5b600080fd5b600080fd5b6000601f19601f8301169050919050565b7f4e487b7100000000000000000000000000000000000000000000000000000000600052604160045260246000fd5b6200016f8262000124565b810181811067ffffffffffffffff8211171562000191576200019062000135565b5b80604052505050565b6000620001a662000106565b9050620001b4828262000164565b919050565b600067ffffffffffffffff821115620001d757620001d662000135565b5b620001e28262000124565b9050602081019050919050565b60005b838110156200020f578082015181840152602081019050620001f2565b60008484015250505050565b6000620002326200022c84620001b9565b6200019a565b9050828152602081018484840111156200025157620002506200011f565b5b6200025e848285620001ef565b509392505050565b600082601f8301126200027e576200027d6200011a565b5b8151620002908482602086016200021b565b91505092915050565b600060ff82169050919050565b620002b18162000299565b8114620002bd57600080fd5b50565b600081519050620002d181620002a6565b92915050565b6000819050919050565b620002ec81620002d7565b8114620002f857600080fd5b50565b6000815190506200030c81620002e1565b92915050565b600080600080608085870312156200032f576200032e62000110565b5b600085015167ffffffffffffffff81111562000350576200034f62000115565b5b6200035e8782880162000266565b945050602085015167ffffffffffffffff81111562000382576200038162000115565b5b620003908782880162000266565b9350506040620003a387828801620002c0565b9250506060620003b687828801620002fb565b91505092959194509250565b600081519050919050565b7f4e487b7100000000000000000000000000000000000000000000000000000000600052602260045260246000fd5b600060028204905060018216806200041557607f821691505b6020821081036200042b576200042a620003cd565b5b50919050565b60008190508160005260206000209050919050565b60006020601f8301049050919050565b600082821b905092915050565b600060088302620004957fffffffffffffffffffffffffffffffffffffffffffffffffffffffffffffffff8262000456565b620004a1868362000456565b95508019841693508086168417925050509392505050565b6000819050919050565b6000620004e4620004de620004d884620002d7565b620004b9565b620002d7565b9050919050565b6000819050919050565b6200050083620004c3565b620005186200050f82620004eb565b84845462000463565b825550505050565b600090565b6200052f62000520565b6200053c818484620004f5565b505050565b5b8181101562000564576200055860008262000525565b60018101905062000542565b5050565b601f821115620005b3576200057d8162000431565b620005888462000446565b8101602085101562000598578190505b620005b0620005a78562000446565b83018262000541565b50505b505050565b600082821c905092915050565b6000620005d860001984600802620005b8565b1980831691505092915050565b6000620005f38383620005c5565b9150826002028217905092915050565b6200060e82620003c2565b67ffffffffffffffff8111156200062a576200062962000135565b5b620006368254620003fc565b6200064382828562000568565b600060209050601f8311600181146200067b576000841562000666578287015190505b620006728582620005e5565b865550620006e2565b601f1984166200068b8662000431565b60005b82811015620006b5578489015182556001820191506020850194506020810190506200068e565b86831015620006d55784890151620006d1601f891682620005c5565b8355505b6001600288020188555050505b505050505050565b608051611a726200070660003960006109610152611a726000f3fe608060405234801561001057600080fd5b50600436106100ea5760003560e01c806342966c681161008c57806395d89b411161006657806395d89b4114610287578063a6f9dae1146102a5578063a9059cbb146102c1578063dd62ed3e146102f1576100ea565b806342966c681461020957806370a0823114610239578063893d20e814610269576100ea565b806318160ddd116100c857806318160ddd1461016d57806323b872dd1461018b578063313ce567146101bb57806340c10f19146101d9576100ea565b806301ffc9a7146100ef57806306fdde031461011f578063095ea7b31461013d575b600080fd5b61010960048036038101906101049190611284565b610321565b60405161011691906112cc565b60405180910390f35b6101276103f3565b6040516101349190611377565b60405180910390f35b6101576004803603810190610152919061142d565b610485565b60405161016491906112cc565b60405180910390f35b61017561062e565b604051610182919061147c565b60405180910390f35b6101a560048036038101906101a09190611497565b610638565b6040516101b291906112cc565b60405180910390f35b6101c361095d565b6040516101d09190611506565b60405180910390f35b6101f360048036038101906101ee919061142d565b610985565b60405161020091906112cc565b60405180910390f35b610223600480360381019061021e9190611521565b610a2b565b60405161023091906112cc565b60405180910390f35b610253600480360381019061024e919061154e565b610ad0565b604051610260919061147c565b60405180910390f35b610271610b18565b60405161027e919061158a565b60405180910390f35b61028f610b42565b60405161029c9190611377565b60405180910390f35b6102bf60048036038101906102ba919061154e565b610bd4565b005b6102db60048036038101906102d6919061142d565b610ca8565b6040516102e891906112cc565b60405180910390f35b61030b600480360381019061030691906115a5565b610efb565b604051610318919061147c565b60405180910390f35b60007f36372b07000000000000000000000000000000000000000000000000000000007bffffffffffffffffffffffffffffffffffffffffffffffffffffffff1916827bffffffffffffffffffffffffffffffffffffffffffffffffffffffff191614806103ec57507fa219a025000000000000000000000000000000000000000000000000000000007bffffffffffffffffffffffffffffffffffffffffffffffffffffffff1916827bffffffffffffffffffffffffffffffffffffffffffffffffffffffff1916145b9050919050565b60606002805461040290611614565b80601f016020809104026020016040519081016040528092919081815260200182805461042e90611614565b801561047b5780601f106104505761010080835404028352916020019161047b565b820191906000526020600020905b81548152906001019060200180831161045e57829003601f168201915b5050505050905090565b60008073ffffffffffffffffffffffffffffffffffffffff168373ffffffffffffffffffffffffffffffffffffffff16036104f5576040517f08c379a00000000000000000000000000000000000000000000000000000000081526004016104ec90611691565b60405180910390fd5b60008211610538576040517f08c379a000000000000000000000000000000000000000000000000000000000815260040161052f906116fd565b60405180910390fd5b600033905082600160008373ffffffffffffffffffffffffffffffffffffffff1673ffffffffffffffffffffffffffffffffffffffff16815260200190815260200160002060008673ffffffffffffffffffffffffffffffffffffffff1673ffffffffffffffffffffffffffffffffffffffff168152602001908152602001600020819055508373ffffffffffffffffffffffffffffffffffffffff168173ffffffffffffffffffffffffffffffffffffffff167f8c5be1e5ebec7d5bd14f71427d1e84f3dd0314c0f7b2291e5b200ac8c7c3b9258560405161061b919061147c565b60405180910390a3600191505092915050565b6000600454905090565b60008033905082600160008773ffffffffffffffffffffffffffffffffffffffff1673ffffffffffffffffffffffffffffffffffffffff16815260200190815260200160002060008373ffffffffffffffffffffffffffffffffffffffff1673ffffffffffffffffffffffffffffffffffffffff1681526020019081526020016000205410156106fd576040517f08c379a00000000000000000000000000000000000000000000000000000000081526004016106f490611769565b60405180910390fd5b600073ffffffffffffffffffffffffffffffffffffffff168473ffffffffffffffffffffffffffffffffffffffff160361076c576040517f08c379a0000000000000000000000000000000000000000000000000000000008152600401610763906117d5565b60405180910390fd5b600083116107af576040517f08c379a00000000000000000000000000000000000000000000000000000000081526004016107a6906116fd565b60405180910390fd5b82600160008773ffffffffffffffffffffffffffffffffffffffff1673ffffffffffffffffffffffffffffffffffffffff16815260200190815260200160002060008373ffffffffffffffffffffffffffffffffffffffff1673ffffffffffffffffffffffffffffffffffffffff168152602001908152602001600020600082825461083b9190611824565b92505081905550826000808773ffffffffffffffffffffffffffffffffffffffff1673ffffffffffffffffffffffffffffffffffffffff16815260200190815260200160002060008282546108909190611824565b92505081905550826000808673ffffffffffffffffffffffffffffffffffffffff1673ffffffffffffffffffffffffffffffffffffffff16815260200190815260200160002060008282546108e59190611858565b925050819055508373ffffffffffffffffffffffffffffffffffffffff168573ffffffffffffffffffffffffffffffffffffffff167fddf252ad1be2c89b69c2b068fc378daa952ba7f163c4a11628f55a4df523b3ef85604051610949919061147c565b60405180910390a360019150509392505050565b60007f0000000000000000000000000000000000000000000000000000000000000000905090565b6000600560009054906101000a900473ffffffffffffffffffffffffffffffffffffffff1673ffffffffffffffffffffffffffffffffffffffff163373ffffffffffffffffffffffffffffffffffffffff1614610a17576040517f08c379a0000000000000000000000000000000000000000000000000000000008152600401610a0e906118d8565b60405180910390fd5b610a218383610f82565b6001905092915050565b6000600560009054906101000a900473ffffffffffffffffffffffffffffffffffffffff1673ffffffffffffffffffffffffffffffffffffffff163373ffffffffffffffffffffffffffffffffffffffff1614610abd576040517f08c379a0000000000000000000000000000000000000000000000000000000008152600401610ab4906118d8565b60405180910390fd5b610ac7338361110c565b60019050919050565b60008060008373ffffffffffffffffffffffffffffffffffffffff1673ffffffffffffffffffffffffffffffffffffffff168152602001908152602001600020549050919050565b6000600560009054906101000a900473ffffffffffffffffffffffffffffffffffffffff16905090565b606060038054610b5190611614565b80601f0160208091040260200160405190810160405280929190818152602001828054610b7d90611614565b8015610bca5780601f10610b9f57610100808354040283529160200191610bca565b820191906000526020600020905b815481529060010190602001808311610bad57829003601f168201915b5050505050905090565b600560009054906101000a900473ffffffffffffffffffffffffffffffffffffffff1673ffffffffffffffffffffffffffffffffffffffff163373ffffffffffffffffffffffffffffffffffffffff1614610c64576040517f08c379a0000000000000000000000000000000000000000000000000000000008152600401610c5b906118d8565b60405180910390fd5b80600560006101000a81548173ffffffffffffffffffffffffffffffffffffffff021916908373ffffffffffffffffffffffffffffffffffffffff16021790555050565b600080339050826000808373ffffffffffffffffffffffffffffffffffffffff1673ffffffffffffffffffffffffffffffffffffffff168152602001908152602001600020541015610d2f576040517f08c379a0000000000000000000000000000000000000000000000000000000008152600401610d2690611944565b60405180910390fd5b600073ffffffffffffffffffffffffffffffffffffffff168473ffffffffffffffffffffffffffffffffffffffff1603610d9e576040517f08c379a0000000000000000000000000000000000000000000000000000000008152600401610d95906117d5565b60405180910390fd5b60008311610de1576040517f08c379a0000000000000000000000000000000000000000000000000000000008152600401610dd8906116fd565b60405180910390fd5b826000808373ffffffffffffffffffffffffffffffffffffffff1673ffffffffffffffffffffffffffffffffffffffff1681526020019081526020016000206000828254610e2f9190611824565b92505081905550826000808673ffffffffffffffffffffffffffffffffffffffff1673ffffffffffffffffffffffffffffffffffffffff1681526020019081526020016000206000828254610e849190611858565b925050819055508373ffffffffffffffffffffffffffffffffffffffff168173ffffffffffffffffffffffffffffffffffffffff167fddf252ad1be2c89b69c2b068fc378daa952ba7f163c4a11628f55a4df523b3ef85604051610ee8919061147c565b60405180910390a3600191505092915050565b6000600160008473ffffffffffffffffffffffffffffffffffffffff1673ffffffffffffffffffffffffffffffffffffffff16815260200190815260200160002060008373ffffffffffffffffffffffffffffffffffffffff1673ffffffffffffffffffffffffffffffffffffffff16815260200190815260200160002054905092915050565b600073ffffffffffffffffffffffffffffffffffffffff168273ffffffffffffffffffffffffffffffffffffffff1603610ff1576040517f08c379a0000000000000000000000000000000000000000000000000000000008152600401610fe8906119b0565b60405180910390fd5b60008111611034576040517f08c379a000000000000000000000000000000000000000000000000000000000815260040161102b90611a1c565b60405180910390fd5b80600460008282546110469190611858565b92505081905550806000808473ffffffffffffffffffffffffffffffffffffffff1673ffffffffffffffffffffffffffffffffffffffff168152602001908152602001600020600082825461109b9190611858565b925050819055508173ffffffffffffffffffffffffffffffffffffffff16600073ffffffffffffffffffffffffffffffffffffffff167fddf252ad1be2c89b69c2b068fc378daa952ba7f163c4a11628f55a4df523b3ef83604051611100919061147c565b60405180910390a35050565b6000811161114f576040517f08c379a000000000000000000000000000000000000000000000000000000000815260040161114690611a1c565b60405180910390fd5b80600460008282546111619190611824565b92505081905550806000808473ffffffffffffffffffffffffffffffffffffffff1673ffffffffffffffffffffffffffffffffffffffff16815260200190815260200160002060008282546111b69190611824565b92505081905550600073ffffffffffffffffffffffffffffffffffffffff168273ffffffffffffffffffffffffffffffffffffffff167fddf252ad1be2c89b69c2b068fc378daa952ba7f163c4a11628f55a4df523b3ef8360405161121b919061147c565b60405180910390a35050565b600080fd5b60007fffffffff0000000000000000000000000000000000000000000000000000000082169050919050565b6112618161122c565b811461126c57600080fd5b50565b60008135905061127e81611258565b92915050565b60006020828403121561129a57611299611227565b5b60006112a88482850161126f565b91505092915050565b60008115159050919050565b6112c6816112b1565b82525050565b60006020820190506112e160008301846112bd565b92915050565b600081519050919050565b600082825260208201905092915050565b60005b83811015611321578082015181840152602081019050611306565b60008484015250505050565b6000601f19601f8301169050919050565b6000611349826112e7565b61135381856112f2565b9350611363818560208601611303565b61136c8161132d565b840191505092915050565b60006020820190508181036000830152611391818461133e565b905092915050565b600073ffffffffffffffffffffffffffffffffffffffff82169050919050565b60006113c482611399565b9050919050565b6113d4816113b9565b81146113df57600080fd5b50565b6000813590506113f1816113cb565b92915050565b6000819050919050565b61140a816113f7565b811461141557600080fd5b50565b60008135905061142781611401565b92915050565b6000806040838503121561144457611443611227565b5b6000611452858286016113e2565b925050602061146385828601611418565b9150509250929050565b611476816113f7565b82525050565b6000602082019050611491600083018461146d565b92915050565b6000806000606084860312156114b0576114af611227565b5b60006114be868287016113e2565b93505060206114cf868287016113e2565b92505060406114e086828701611418565b9150509250925092565b600060ff82169050919050565b611500816114ea565b82525050565b600060208201905061151b60008301846114f7565b92915050565b60006020828403121561153757611536611227565b5b600061154584828501611418565b91505092915050565b60006020828403121561156457611563611227565b5b6000611572848285016113e2565b91505092915050565b611584816113b9565b82525050565b600060208201905061159f600083018461157b565b92915050565b600080604083850312156115bc576115bb611227565b5b60006115ca858286016113e2565b92505060206115db858286016113e2565b9150509250929050565b7f4e487b7100000000000000000000000000000000000000000000000000000000600052602260045260246000fd5b6000600282049050600182168061162c57607f821691505b60208210810361163f5761163e6115e5565b5b50919050565b7f496e76616c6964207370656e6465722061646472657373000000000000000000600082015250565b600061167b6017836112f2565b915061168682611645565b602082019050919050565b600060208201905081810360008301526116aa8161166e565b9050919050565b7f746f6b656e203d3d203000000000000000000000000000000000000000000000600082015250565b60006116e7600a836112f2565b91506116f2826116b1565b602082019050919050565b60006020820190508181036000830152611716816116da565b9050919050565b7f496e73756666696369656e7420617070726f76616c20616d6f756e7400000000600082015250565b6000611753601c836112f2565b915061175e8261171d565b602082019050919050565b6000602082019050818103600083015261178281611746565b9050919050565b7f496e76616c696420746172676574206164647265737300000000000000000000600082015250565b60006117bf6016836112f2565b91506117ca82611789565b602082019050919050565b600060208201905081810360008301526117ee816117b2565b9050919050565b7f4e487b7100000000000000000000000000000000000000000000000000000000600052601160045260246000fd5b600061182f826113f7565b915061183a836113f7565b9250828203905081811115611852576118516117f5565b5b92915050565b6000611863826113f7565b915061186e836113f7565b9250828201905080821115611886576118856117f5565b5b92915050565b7f4f6e6c79206f776e657200000000000000000000000000000000000000000000600082015250565b60006118c2600a836112f2565b91506118cd8261188c565b602082019050919050565b600060208201905081810360008301526118f1816118b5565b9050919050565b7f496e73756666696369656e742062616c616e6365000000000000000000000000600082015250565b600061192e6014836112f2565b9150611939826118f8565b602082019050919050565b6000602082019050818103600083015261195d81611921565b9050919050565b7f496e76616c696420616464726573730000000000000000000000000000000000600082015250565b600061199a600f836112f2565b91506119a582611964565b602082019050919050565b600060208201905081810360008301526119c98161198d565b9050919050565b7f496e76616c696420746f6b656e20616d6f756e74000000000000000000000000600082015250565b6000611a066014836112f2565b9150611a11826119d0565b602082019050919050565b60006020820190508181036000830152611a35816119f9565b905091905056fea264697066735822122036f805e55922947961b005385e93588543bd7bb2f03b0328e27977e280ed874064736f6c63430008110033",
  "immutableReferences": {
    "114": [
      {
        "length": 32,
        "start": 2401
      }
    ]
  },
  "source": "// SPDX-License-Identifier: GPL-3.0\r\npragma solidity ^0.8.0;\r\n\r\ninterface IERC20 {\r\n    event Transfer(address indexed from, address indexed to, uint value);\r\n    event Approval(address indexed owner, address indexed spender, uint value);\r\n\r\n    function totalSupply() external view returns(uint);\r\n    function balanceOf(address _account) external view returns(uint);\r\n    function transfer(address _to, uint _amount) external returns(bool);\r\n    function allowance(address _owner, address _spender) external view returns(uint);\r\n    function approve(address _spender, uint _amount) external returns(bool);\r\n    function transferFrom(\r\n        address _from,\r\n        address _to,\r\n        uint256 _amount\r\n    ) external returns(bool);\r\n}\r\n\r\ninterface IERC20Metadata is IERC20 {\r\n    function name() external view returns(string memory);\r\n    function symbol() external view returns(string memory);\r\n    function decimals() external view returns(uint8);\r\n}\r\n\r\ninterface IERC165 {\r\n    function supportsInterface(bytes4 interfaceId) external view returns(bool);\r\n}\r\n\r\ncontract ERC20 is IERC20Metadata, IERC165 {\r\n    // from user to his/her balance\r\n    mapping(address => uint) internal balances;\r\n    // from user to approved operator\r\n    mapping(address => mapping(address => uint)) private allowances;\r\n\r\n    string private _name;\r\n    string private _symbol;\r\n    uint8 private immutable _decimals;\r\n\r\n    uint private _totalSupply;\r\n\r\n    constructor(\r\n        string memory _tokenName,\r\n        string memory _tokenSymbol,\r\n        uint8 _tokenDecimals,\r\n        uint _tokenTotalSupply /// note must be in decimal format\r\n    ) {\r\n        _name = _tokenName;\r\n        _symbol = _tokenSymbol;\r\n        _decimals = _tokenDecimals;\r\n        _totalSupply = _tokenTotalSupply;\r\n\r\n        balances[msg.sender] = _tokenTotalSupply;\r\n    }\r\n\r\n    function name() external view returns(string memory) {\r\n        return _name;\r\n    }\r\n\r\n    function symbol() external view returns(string memory) {\r\n        return _symbol;\r\n    }\r\n\r\n    function totalSupply() external view returns(uint) {\r\n        return _totalSupply;\r\n    }\r\n\r\n    function decimals() external view returns(uint8) {\r\n        return _decimals;\r\n    }\r\n\r\n    function balanceOf(address _account) external view returns(uint) {\r\n        return balances[_account];\r\n    }\r\n\r\n    function allowance(address _owner, address _spender) external view returns(uint) {\r\n        return allowances[_owner][_spender];\r\n    }\r\n\r\n    function transfer(address _to, uint _amount) external returns(bool) {\r\n        address msgSender = msg.sender;\r\n        require(balances[msgSender] >= _amount, \"Insufficient balance\");\r\n        require(_to != address(0), \"Invalid target address\");\r\n        require(_amount > 0, \"token == 0\");\r\n\r\n        balances[msgSender] -= _amount;\r\n        balances[_to] += _amount;\r\n\r\n        emit Transfer({\r\n            from: msgSender,\r\n            to: _to,\r\n            value: _amount\r\n        });\r\n\r\n        return true;\r\n    }\r\n\r\n    function transferFrom(\r\n        address _from,\r\n        address _to,\r\n        uint256 _amount\r\n    ) external returns (bool) {\r\n        address msgSender = msg.sender;\r\n        require(allowances[_from][msgSender] >= _amount, \"Insufficient approval amount\");\r\n        require(_to != address(0), \"Invalid target address\");\r\n        require(_amount > 0, \"token == 0\");\r\n\r\n        allowances[_from][msgSender] -= _amount;\r\n\r\n        balances[_from] -= _amount;\r\n        balances[_to] += _amount;\r\n\r\n        emit Transfer({\r\n            from: _from,\r\n            to: _to,\r\n            value: _amount\r\n        });\r\n\r\n        return true;\r\n    }\r\n\r\n    function approve(address _spender, uint _amount) external returns(bool) {\r\n        require(_spender != address(0), \"Invalid spender address\");\r\n        require(_amount > 0, \"token == 0\");\r\n        address msgSender = msg.sender;\r\n\r\n        allowances[msgSender][_spender] = _amount;\r\n\r\n        emit Approval({\r\n            owner: msgSender,\r\n            spender: _spender,\r\n            value: _amount\r\n        });\r\n\r\n        return true;\r\n    }\r\n\r\n    function _mint(address _to, uint _amount) internal {\r\n        require(_to != address(0), \"Invalid address\");\r\n        require(_amount > 0, \"Invalid token amount\");\r\n\r\n        _totalSupply += _amount;\r\n\r\n        balances[_to] += _amount;\r\n\r\n        emit Transfer({\r\n            from: address(0),\r\n            to: _to,\r\n            value: _amount\r\n        });\r\n    }\r\n\r\n    function _burn(address _from, uint _amount) internal {\r\n        require(_amount > 0, \"Invalid token amount\");\r\n\r\n        _totalSupply -= _amount;\r\n\r\n        balances[_from] -= _amount;\r\n\r\n        emit Transfer({\r\n            from: _from,\r\n            to: address(0),\r\n            value: _amount\r\n        });\r\n    } \r\n\r\n    function supportsInterface(bytes4 _interfaceId) external pure returns(bool) {\r\n        return _interfaceId == type(IERC20).interfaceId || _interfaceId == type(IERC20Metadata).interfaceId;\r\n    }\r\n}\r\n\r\ncontract Token is ERC20 {\r\n    address private owner;\r\n\r\n    constructor(\r\n        string memory tokenName,\r\n        string memory tokenSymbol,\r\n        uint8 tokenDecimals,\r\n        uint tokenTotalSupply\r\n    ) ERC20(\r\n        tokenName,\r\n        tokenSymbol,\r\n        tokenDecimals,\r\n        tokenTotalSupply\r\n    ) {\r\n        owner = msg.sender;\r\n    }\r\n\r\n    modifier onlyOwner() {\r\n        require(msg.sender == owner, \"Only owner\");\r\n        _;\r\n    }\r\n\r\n    function mint(address _to, uint _amount) external onlyOwner returns(bool) {\r\n        _mint(_to, _amount);\r\n\r\n        return true;\r\n    }\r\n\r\n    function burn(uint _amount) external onlyOwner returns(bool) {\r\n        _burn(msg.sender, _amount);\r\n\r\n        return true;\r\n    }\r\n\r\n    function changeOwner(address _newOwner) external onlyOwner {\r\n        owner = _newOwner;\r\n    }\r\n\r\n    function getOwner() external view returns(address) {\r\n        return owner;\r\n    }\r\n}\r\n\r\ncontract WETH is ERC20(\"Wrapped Ether\", \"WETH\", 18, 0) {\r\n    bool locked;\r\n    modifier nonReentrant() {\r\n        require(locked == false, \"locked!\");\r\n        locked = true;\r\n        _;\r\n        locked = false;\r\n    }\r\n\r\n    function deposit() external payable returns(bool) {\r\n        _mint(msg.sender, msg.value);\r\n\r\n        return true;\r\n    }\r\n\r\n    function withdraw(uint _ether) external payable nonReentrant returns(bool) {\r\n        address msgSender = msg.sender;\r\n        require(balances[msgSender] >= _ether, \"Insufficient weth balance\");\r\n\r\n        _burn(msgSender, _ether);\r\n\r\n        payable(msgSender).transfer(_ether);\r\n\r\n        return true;\r\n    }\r\n}",
  "sourcePath": "C:\\Users\\PooriaGg\\Desktop\\Project-OpenSea\\Marketplace_Test\\Implementation_V1_Test\\contracts\\ERC20.sol",
  "compiler": {
    "name": "solc",
    "version": "0.8.17+commit.8df45f5f.Emscripten.clang"
  },
  "schemaVersion": "3.4.11",
  "updatedAt": "2023-01-12T13:10:50.969Z",
  "devdoc": {
    "kind": "dev",
    "methods": {},
    "version": 1
  },
  "userdoc": {
    "kind": "user",
    "methods": {},
    "version": 1
  }
}