{
  "contractName": "WETH",
  "abi": [
    {
      "anonymous": false,
      "inputs": [
        {
          "indexed": true,
          "internalType": "address",
          "name": "owner",
          "type": "address"
        },
        {
          "indexed": true,
          "internalType": "address",
          "name": "spender",
          "type": "address"
        },
        {
          "indexed": false,
          "internalType": "uint256",
          "name": "value",
          "type": "uint256"
        }
      ],
      "name": "Approval",
      "type": "event"
    },
    {
      "anonymous": false,
      "inputs": [
        {
          "indexed": true,
          "internalType": "address",
          "name": "from",
          "type": "address"
        },
        {
          "indexed": true,
          "internalType": "address",
          "name": "to",
          "type": "address"
        },
        {
          "indexed": false,
          "internalType": "uint256",
          "name": "value",
          "type": "uint256"
        }
      ],
      "name": "Transfer",
      "type": "event"
    },
    {
      "inputs": [
        {
          "internalType": "address",
          "name": "_owner",
          "type": "address"
        },
        {
          "internalType": "address",
          "name": "_spender",
          "type": "address"
        }
      ],
      "name": "allowance",
      "outputs": [
        {
          "internalType": "uint256",
          "name": "",
          "type": "uint256"
        }
      ],
      "stateMutability": "view",
      "type": "function"
    },
    {
      "inputs": [
        {
          "internalType": "address",
          "name": "_spender",
          "type": "address"
        },
        {
          "internalType": "uint256",
          "name": "_amount",
          "type": "uint256"
        }
      ],
      "name": "approve",
      "outputs": [
        {
          "internalType": "bool",
          "name": "",
          "type": "bool"
        }
      ],
      "stateMutability": "nonpayable",
      "type": "function"
    },
    {
      "inputs": [
        {
          "internalType": "address",
          "name": "_account",
          "type": "address"
        }
      ],
      "name": "balanceOf",
      "outputs": [
        {
          "internalType": "uint256",
          "name": "",
          "type": "uint256"
        }
      ],
      "stateMutability": "view",
      "type": "function"
    },
    {
      "inputs": [],
      "name": "decimals",
      "outputs": [
        {
          "internalType": "uint8",
          "name": "",
          "type": "uint8"
        }
      ],
      "stateMutability": "view",
      "type": "function"
    },
    {
      "inputs": [],
      "name": "name",
      "outputs": [
        {
          "internalType": "string",
          "name": "",
          "type": "string"
        }
      ],
      "stateMutability": "view",
      "type": "function"
    },
    {
      "inputs": [
        {
          "internalType": "bytes4",
          "name": "_interfaceId",
          "type": "bytes4"
        }
      ],
      "name": "supportsInterface",
      "outputs": [
        {
          "internalType": "bool",
          "name": "",
          "type": "bool"
        }
      ],
      "stateMutability": "pure",
      "type": "function"
    },
    {
      "inputs": [],
      "name": "symbol",
      "outputs": [
        {
          "internalType": "string",
          "name": "",
          "type": "string"
        }
      ],
      "stateMutability": "view",
      "type": "function"
    },
    {
      "inputs": [],
      "name": "totalSupply",
      "outputs": [
        {
          "internalType": "uint256",
          "name": "",
          "type": "uint256"
        }
      ],
      "stateMutability": "view",
      "type": "function"
    },
    {
      "inputs": [
        {
          "internalType": "address",
          "name": "_to",
          "type": "address"
        },
        {
          "internalType": "uint256",
          "name": "_amount",
          "type": "uint256"
        }
      ],
      "name": "transfer",
      "outputs": [
        {
          "internalType": "bool",
          "name": "",
          "type": "bool"
        }
      ],
      "stateMutability": "nonpayable",
      "type": "function"
    },
    {
      "inputs": [
        {
          "internalType": "address",
          "name": "_from",
          "type": "address"
        },
        {
          "internalType": "address",
          "name": "_to",
          "type": "address"
        },
        {
          "internalType": "uint256",
          "name": "_amount",
          "type": "uint256"
        }
      ],
      "name": "transferFrom",
      "outputs": [
        {
          "internalType": "bool",
          "name": "",
          "type": "bool"
        }
      ],
      "stateMutability": "nonpayable",
      "type": "function"
    },
    {
      "inputs": [],
      "name": "deposit",
      "outputs": [
        {
          "internalType": "bool",
          "name": "",
          "type": "bool"
        }
      ],
      "stateMutability": "payable",
      "type": "function"
    },
    {
      "inputs": [
        {
          "internalType": "uint256",
          "name": "_ether",
          "type": "uint256"
        }
      ],
      "name": "withdraw",
      "outputs": [
        {
          "internalType": "bool",
          "name": "",
          "type": "bool"
        }
      ],
      "stateMutability": "payable",
      "type": "function"
    }
  ],
  "bytecode": "0x60a06040523480156200001157600080fd5b506040518060400160405280600d81526020017f57726170706564204574686572000000000000000000000000000000000000008152506040518060400160405280600481526020017f574554480000000000000000000000000000000000000000000000000000000081525060126000836002908162000093919062000382565b508260039081620000a5919062000382565b508160ff1660808160ff168152505080600481905550806000803373ffffffffffffffffffffffffffffffffffffffff1673ffffffffffffffffffffffffffffffffffffffff168152602001908152602001600020819055505050505062000469565b600081519050919050565b7f4e487b7100000000000000000000000000000000000000000000000000000000600052604160045260246000fd5b7f4e487b7100000000000000000000000000000000000000000000000000000000600052602260045260246000fd5b600060028204905060018216806200018a57607f821691505b602082108103620001a0576200019f62000142565b5b50919050565b60008190508160005260206000209050919050565b60006020601f8301049050919050565b600082821b905092915050565b6000600883026200020a7fffffffffffffffffffffffffffffffffffffffffffffffffffffffffffffffff82620001cb565b620002168683620001cb565b95508019841693508086168417925050509392505050565b6000819050919050565b6000819050919050565b6000620002636200025d62000257846200022e565b62000238565b6200022e565b9050919050565b6000819050919050565b6200027f8362000242565b620002976200028e826200026a565b848454620001d8565b825550505050565b600090565b620002ae6200029f565b620002bb81848462000274565b505050565b5b81811015620002e357620002d7600082620002a4565b600181019050620002c1565b5050565b601f8211156200033257620002fc81620001a6565b6200030784620001bb565b8101602085101562000317578190505b6200032f6200032685620001bb565b830182620002c0565b50505b505050565b600082821c905092915050565b6000620003576000198460080262000337565b1980831691505092915050565b600062000372838362000344565b9150826002028217905092915050565b6200038d8262000108565b67ffffffffffffffff811115620003a957620003a862000113565b5b620003b5825462000171565b620003c2828285620002e7565b600060209050601f831160018114620003fa5760008415620003e5578287015190505b620003f1858262000364565b86555062000461565b601f1984166200040a86620001a6565b60005b8281101562000434578489015182556001820191506020850194506020810190506200040d565b8683101562000454578489015162000450601f89168262000344565b8355505b6001600288020188555050505b505050505050565b6080516119df620004856000396000610ac201526119df6000f3fe6080604052600436106100a75760003560e01c8063313ce56711610064578063313ce567146101e957806370a082311461021457806395d89b4114610251578063a9059cbb1461027c578063d0e30db0146102b9578063dd62ed3e146102d7576100a7565b806301ffc9a7146100ac57806306fdde03146100e9578063095ea7b31461011457806318160ddd1461015157806323b872dd1461017c5780632e1a7d4d146101b9575b600080fd5b3480156100b857600080fd5b506100d360048036038101906100ce91906111af565b610314565b6040516100e091906111f7565b60405180910390f35b3480156100f557600080fd5b506100fe6103e6565b60405161010b91906112a2565b60405180910390f35b34801561012057600080fd5b5061013b60048036038101906101369190611358565b610478565b60405161014891906111f7565b60405180910390f35b34801561015d57600080fd5b50610166610621565b60405161017391906113a7565b60405180910390f35b34801561018857600080fd5b506101a3600480360381019061019e91906113c2565b61062b565b6040516101b091906111f7565b60405180910390f35b6101d360048036038101906101ce9190611415565b610950565b6040516101e091906111f7565b60405180910390f35b3480156101f557600080fd5b506101fe610abe565b60405161020b919061145e565b60405180910390f35b34801561022057600080fd5b5061023b60048036038101906102369190611479565b610ae6565b60405161024891906113a7565b60405180910390f35b34801561025d57600080fd5b50610266610b2e565b60405161027391906112a2565b60405180910390f35b34801561028857600080fd5b506102a3600480360381019061029e9190611358565b610bc0565b6040516102b091906111f7565b60405180910390f35b6102c1610e13565b6040516102ce91906111f7565b60405180910390f35b3480156102e357600080fd5b506102fe60048036038101906102f991906114a6565b610e26565b60405161030b91906113a7565b60405180910390f35b60007f36372b07000000000000000000000000000000000000000000000000000000007bffffffffffffffffffffffffffffffffffffffffffffffffffffffff1916827bffffffffffffffffffffffffffffffffffffffffffffffffffffffff191614806103df57507fa219a025000000000000000000000000000000000000000000000000000000007bffffffffffffffffffffffffffffffffffffffffffffffffffffffff1916827bffffffffffffffffffffffffffffffffffffffffffffffffffffffff1916145b9050919050565b6060600280546103f590611515565b80601f016020809104026020016040519081016040528092919081815260200182805461042190611515565b801561046e5780601f106104435761010080835404028352916020019161046e565b820191906000526020600020905b81548152906001019060200180831161045157829003601f168201915b5050505050905090565b60008073ffffffffffffffffffffffffffffffffffffffff168373ffffffffffffffffffffffffffffffffffffffff16036104e8576040517f08c379a00000000000000000000000000000000000000000000000000000000081526004016104df90611592565b60405180910390fd5b6000821161052b576040517f08c379a0000000000000000000000000000000000000000000000000000000008152600401610522906115fe565b60405180910390fd5b600033905082600160008373ffffffffffffffffffffffffffffffffffffffff1673ffffffffffffffffffffffffffffffffffffffff16815260200190815260200160002060008673ffffffffffffffffffffffffffffffffffffffff1673ffffffffffffffffffffffffffffffffffffffff168152602001908152602001600020819055508373ffffffffffffffffffffffffffffffffffffffff168173ffffffffffffffffffffffffffffffffffffffff167f8c5be1e5ebec7d5bd14f71427d1e84f3dd0314c0f7b2291e5b200ac8c7c3b9258560405161060e91906113a7565b60405180910390a3600191505092915050565b6000600454905090565b60008033905082600160008773ffffffffffffffffffffffffffffffffffffffff1673ffffffffffffffffffffffffffffffffffffffff16815260200190815260200160002060008373ffffffffffffffffffffffffffffffffffffffff1673ffffffffffffffffffffffffffffffffffffffff1681526020019081526020016000205410156106f0576040517f08c379a00000000000000000000000000000000000000000000000000000000081526004016106e79061166a565b60405180910390fd5b600073ffffffffffffffffffffffffffffffffffffffff168473ffffffffffffffffffffffffffffffffffffffff160361075f576040517f08c379a0000000000000000000000000000000000000000000000000000000008152600401610756906116d6565b60405180910390fd5b600083116107a2576040517f08c379a0000000000000000000000000000000000000000000000000000000008152600401610799906115fe565b60405180910390fd5b82600160008773ffffffffffffffffffffffffffffffffffffffff1673ffffffffffffffffffffffffffffffffffffffff16815260200190815260200160002060008373ffffffffffffffffffffffffffffffffffffffff1673ffffffffffffffffffffffffffffffffffffffff168152602001908152602001600020600082825461082e9190611725565b92505081905550826000808773ffffffffffffffffffffffffffffffffffffffff1673ffffffffffffffffffffffffffffffffffffffff16815260200190815260200160002060008282546108839190611725565b92505081905550826000808673ffffffffffffffffffffffffffffffffffffffff1673ffffffffffffffffffffffffffffffffffffffff16815260200190815260200160002060008282546108d89190611759565b925050819055508373ffffffffffffffffffffffffffffffffffffffff168573ffffffffffffffffffffffffffffffffffffffff167fddf252ad1be2c89b69c2b068fc378daa952ba7f163c4a11628f55a4df523b3ef8560405161093c91906113a7565b60405180910390a360019150509392505050565b6000801515600560009054906101000a900460ff161515146109a7576040517f08c379a000000000000000000000000000000000000000000000000000000000815260040161099e906117d9565b60405180910390fd5b6001600560006101000a81548160ff0219169083151502179055506000339050826000808373ffffffffffffffffffffffffffffffffffffffff1673ffffffffffffffffffffffffffffffffffffffff168152602001908152602001600020541015610a48576040517f08c379a0000000000000000000000000000000000000000000000000000000008152600401610a3f90611845565b60405180910390fd5b610a528184610ead565b8073ffffffffffffffffffffffffffffffffffffffff166108fc849081150290604051600060405180830381858888f19350505050158015610a98573d6000803e3d6000fd5b5060019150506000600560006101000a81548160ff021916908315150217905550919050565b60007f0000000000000000000000000000000000000000000000000000000000000000905090565b60008060008373ffffffffffffffffffffffffffffffffffffffff1673ffffffffffffffffffffffffffffffffffffffff168152602001908152602001600020549050919050565b606060038054610b3d90611515565b80601f0160208091040260200160405190810160405280929190818152602001828054610b6990611515565b8015610bb65780601f10610b8b57610100808354040283529160200191610bb6565b820191906000526020600020905b815481529060010190602001808311610b9957829003601f168201915b5050505050905090565b600080339050826000808373ffffffffffffffffffffffffffffffffffffffff1673ffffffffffffffffffffffffffffffffffffffff168152602001908152602001600020541015610c47576040517f08c379a0000000000000000000000000000000000000000000000000000000008152600401610c3e906118b1565b60405180910390fd5b600073ffffffffffffffffffffffffffffffffffffffff168473ffffffffffffffffffffffffffffffffffffffff1603610cb6576040517f08c379a0000000000000000000000000000000000000000000000000000000008152600401610cad906116d6565b60405180910390fd5b60008311610cf9576040517f08c379a0000000000000000000000000000000000000000000000000000000008152600401610cf0906115fe565b60405180910390fd5b826000808373ffffffffffffffffffffffffffffffffffffffff1673ffffffffffffffffffffffffffffffffffffffff1681526020019081526020016000206000828254610d479190611725565b92505081905550826000808673ffffffffffffffffffffffffffffffffffffffff1673ffffffffffffffffffffffffffffffffffffffff1681526020019081526020016000206000828254610d9c9190611759565b925050819055508373ffffffffffffffffffffffffffffffffffffffff168173ffffffffffffffffffffffffffffffffffffffff167fddf252ad1be2c89b69c2b068fc378daa952ba7f163c4a11628f55a4df523b3ef85604051610e0091906113a7565b60405180910390a3600191505092915050565b6000610e1f3334610fc8565b6001905090565b6000600160008473ffffffffffffffffffffffffffffffffffffffff1673ffffffffffffffffffffffffffffffffffffffff16815260200190815260200160002060008373ffffffffffffffffffffffffffffffffffffffff1673ffffffffffffffffffffffffffffffffffffffff16815260200190815260200160002054905092915050565b60008111610ef0576040517f08c379a0000000000000000000000000000000000000000000000000000000008152600401610ee79061191d565b60405180910390fd5b8060046000828254610f029190611725565b92505081905550806000808473ffffffffffffffffffffffffffffffffffffffff1673ffffffffffffffffffffffffffffffffffffffff1681526020019081526020016000206000828254610f579190611725565b92505081905550600073ffffffffffffffffffffffffffffffffffffffff168273ffffffffffffffffffffffffffffffffffffffff167fddf252ad1be2c89b69c2b068fc378daa952ba7f163c4a11628f55a4df523b3ef83604051610fbc91906113a7565b60405180910390a35050565b600073ffffffffffffffffffffffffffffffffffffffff168273ffffffffffffffffffffffffffffffffffffffff1603611037576040517f08c379a000000000000000000000000000000000000000000000000000000000815260040161102e90611989565b60405180910390fd5b6000811161107a576040517f08c379a00000000000000000000000000000000000000000000000000000000081526004016110719061191d565b60405180910390fd5b806004600082825461108c9190611759565b92505081905550806000808473ffffffffffffffffffffffffffffffffffffffff1673ffffffffffffffffffffffffffffffffffffffff16815260200190815260200160002060008282546110e19190611759565b925050819055508173ffffffffffffffffffffffffffffffffffffffff16600073ffffffffffffffffffffffffffffffffffffffff167fddf252ad1be2c89b69c2b068fc378daa952ba7f163c4a11628f55a4df523b3ef8360405161114691906113a7565b60405180910390a35050565b600080fd5b60007fffffffff0000000000000000000000000000000000000000000000000000000082169050919050565b61118c81611157565b811461119757600080fd5b50565b6000813590506111a981611183565b92915050565b6000602082840312156111c5576111c4611152565b5b60006111d38482850161119a565b91505092915050565b60008115159050919050565b6111f1816111dc565b82525050565b600060208201905061120c60008301846111e8565b92915050565b600081519050919050565b600082825260208201905092915050565b60005b8381101561124c578082015181840152602081019050611231565b60008484015250505050565b6000601f19601f8301169050919050565b600061127482611212565b61127e818561121d565b935061128e81856020860161122e565b61129781611258565b840191505092915050565b600060208201905081810360008301526112bc8184611269565b905092915050565b600073ffffffffffffffffffffffffffffffffffffffff82169050919050565b60006112ef826112c4565b9050919050565b6112ff816112e4565b811461130a57600080fd5b50565b60008135905061131c816112f6565b92915050565b6000819050919050565b61133581611322565b811461134057600080fd5b50565b6000813590506113528161132c565b92915050565b6000806040838503121561136f5761136e611152565b5b600061137d8582860161130d565b925050602061138e85828601611343565b9150509250929050565b6113a181611322565b82525050565b60006020820190506113bc6000830184611398565b92915050565b6000806000606084860312156113db576113da611152565b5b60006113e98682870161130d565b93505060206113fa8682870161130d565b925050604061140b86828701611343565b9150509250925092565b60006020828403121561142b5761142a611152565b5b600061143984828501611343565b91505092915050565b600060ff82169050919050565b61145881611442565b82525050565b6000602082019050611473600083018461144f565b92915050565b60006020828403121561148f5761148e611152565b5b600061149d8482850161130d565b91505092915050565b600080604083850312156114bd576114bc611152565b5b60006114cb8582860161130d565b92505060206114dc8582860161130d565b9150509250929050565b7f4e487b7100000000000000000000000000000000000000000000000000000000600052602260045260246000fd5b6000600282049050600182168061152d57607f821691505b6020821081036115405761153f6114e6565b5b50919050565b7f496e76616c6964207370656e6465722061646472657373000000000000000000600082015250565b600061157c60178361121d565b915061158782611546565b602082019050919050565b600060208201905081810360008301526115ab8161156f565b9050919050565b7f746f6b656e203d3d203000000000000000000000000000000000000000000000600082015250565b60006115e8600a8361121d565b91506115f3826115b2565b602082019050919050565b60006020820190508181036000830152611617816115db565b9050919050565b7f496e73756666696369656e7420617070726f76616c20616d6f756e7400000000600082015250565b6000611654601c8361121d565b915061165f8261161e565b602082019050919050565b6000602082019050818103600083015261168381611647565b9050919050565b7f496e76616c696420746172676574206164647265737300000000000000000000600082015250565b60006116c060168361121d565b91506116cb8261168a565b602082019050919050565b600060208201905081810360008301526116ef816116b3565b9050919050565b7f4e487b7100000000000000000000000000000000000000000000000000000000600052601160045260246000fd5b600061173082611322565b915061173b83611322565b9250828203905081811115611753576117526116f6565b5b92915050565b600061176482611322565b915061176f83611322565b9250828201905080821115611787576117866116f6565b5b92915050565b7f6c6f636b65642100000000000000000000000000000000000000000000000000600082015250565b60006117c360078361121d565b91506117ce8261178d565b602082019050919050565b600060208201905081810360008301526117f2816117b6565b9050919050565b7f496e73756666696369656e7420776574682062616c616e636500000000000000600082015250565b600061182f60198361121d565b915061183a826117f9565b602082019050919050565b6000602082019050818103600083015261185e81611822565b9050919050565b7f496e73756666696369656e742062616c616e6365000000000000000000000000600082015250565b600061189b60148361121d565b91506118a682611865565b602082019050919050565b600060208201905081810360008301526118ca8161188e565b9050919050565b7f496e76616c696420746f6b656e20616d6f756e74000000000000000000000000600082015250565b600061190760148361121d565b9150611912826118d1565b602082019050919050565b60006020820190508181036000830152611936816118fa565b9050919050565b7f496e76616c696420616464726573730000000000000000000000000000000000600082015250565b6000611973600f8361121d565b915061197e8261193d565b602082019050919050565b600060208201905081810360008301526119a281611966565b905091905056fea2646970667358221220d059d5ff355575fa434a40addb77743bff0adbc661cb0884acf5e17ff61ffd3764736f6c63430008110033",
  "immutableReferences": {
    "114": [
      {
        "length": 32,
        "start": 2754
      }
    ]
  },
  "source": "// SPDX-License-Identifier: GPL-3.0\r\npragma solidity ^0.8.0;\r\n\r\ninterface IERC20 {\r\n    event Transfer(address indexed from, address indexed to, uint value);\r\n    event Approval(address indexed owner, address indexed spender, uint value);\r\n\r\n    function totalSupply() external view returns(uint);\r\n    function balanceOf(address _account) external view returns(uint);\r\n    function transfer(address _to, uint _amount) external returns(bool);\r\n    function allowance(address _owner, address _spender) external view returns(uint);\r\n    function approve(address _spender, uint _amount) external returns(bool);\r\n    function transferFrom(\r\n        address _from,\r\n        address _to,\r\n        uint256 _amount\r\n    ) external returns(bool);\r\n}\r\n\r\ninterface IERC20Metadata is IERC20 {\r\n    function name() external view returns(string memory);\r\n    function symbol() external view returns(string memory);\r\n    function decimals() external view returns(uint8);\r\n}\r\n\r\ninterface IERC165 {\r\n    function supportsInterface(bytes4 interfaceId) external view returns(bool);\r\n}\r\n\r\ncontract ERC20 is IERC20Metadata, IERC165 {\r\n    // from user to his/her balance\r\n    mapping(address => uint) internal balances;\r\n    // from user to approved operator\r\n    mapping(address => mapping(address => uint)) private allowances;\r\n\r\n    string private _name;\r\n    string private _symbol;\r\n    uint8 private immutable _decimals;\r\n\r\n    uint private _totalSupply;\r\n\r\n    constructor(\r\n        string memory _tokenName,\r\n        string memory _tokenSymbol,\r\n        uint8 _tokenDecimals,\r\n        uint _tokenTotalSupply /// note must be in decimal format\r\n    ) {\r\n        _name = _tokenName;\r\n        _symbol = _tokenSymbol;\r\n        _decimals = _tokenDecimals;\r\n        _totalSupply = _tokenTotalSupply;\r\n\r\n        balances[msg.sender] = _tokenTotalSupply;\r\n    }\r\n\r\n    function name() external view returns(string memory) {\r\n        return _name;\r\n    }\r\n\r\n    function symbol() external view returns(string memory) {\r\n        return _symbol;\r\n    }\r\n\r\n    function totalSupply() external view returns(uint) {\r\n        return _totalSupply;\r\n    }\r\n\r\n    function decimals() external view returns(uint8) {\r\n        return _decimals;\r\n    }\r\n\r\n    function balanceOf(address _account) external view returns(uint) {\r\n        return balances[_account];\r\n    }\r\n\r\n    function allowance(address _owner, address _spender) external view returns(uint) {\r\n        return allowances[_owner][_spender];\r\n    }\r\n\r\n    function transfer(address _to, uint _amount) external returns(bool) {\r\n        address msgSender = msg.sender;\r\n        require(balances[msgSender] >= _amount, \"Insufficient balance\");\r\n        require(_to != address(0), \"Invalid target address\");\r\n        require(_amount > 0, \"token == 0\");\r\n\r\n        balances[msgSender] -= _amount;\r\n        balances[_to] += _amount;\r\n\r\n        emit Transfer({\r\n            from: msgSender,\r\n            to: _to,\r\n            value: _amount\r\n        });\r\n\r\n        return true;\r\n    }\r\n\r\n    function transferFrom(\r\n        address _from,\r\n        address _to,\r\n        uint256 _amount\r\n    ) external returns (bool) {\r\n        address msgSender = msg.sender;\r\n        require(allowances[_from][msgSender] >= _amount, \"Insufficient approval amount\");\r\n        require(_to != address(0), \"Invalid target address\");\r\n        require(_amount > 0, \"token == 0\");\r\n\r\n        allowances[_from][msgSender] -= _amount;\r\n\r\n        balances[_from] -= _amount;\r\n        balances[_to] += _amount;\r\n\r\n        emit Transfer({\r\n            from: _from,\r\n            to: _to,\r\n            value: _amount\r\n        });\r\n\r\n        return true;\r\n    }\r\n\r\n    function approve(address _spender, uint _amount) external returns(bool) {\r\n        require(_spender != address(0), \"Invalid spender address\");\r\n        require(_amount > 0, \"token == 0\");\r\n        address msgSender = msg.sender;\r\n\r\n        allowances[msgSender][_spender] = _amount;\r\n\r\n        emit Approval({\r\n            owner: msgSender,\r\n            spender: _spender,\r\n            value: _amount\r\n        });\r\n\r\n        return true;\r\n    }\r\n\r\n    function _mint(address _to, uint _amount) internal {\r\n        require(_to != address(0), \"Invalid address\");\r\n        require(_amount > 0, \"Invalid token amount\");\r\n\r\n        _totalSupply += _amount;\r\n\r\n        balances[_to] += _amount;\r\n\r\n        emit Transfer({\r\n            from: address(0),\r\n            to: _to,\r\n            value: _amount\r\n        });\r\n    }\r\n\r\n    function _burn(address _from, uint _amount) internal {\r\n        require(_amount > 0, \"Invalid token amount\");\r\n\r\n        _totalSupply -= _amount;\r\n\r\n        balances[_from] -= _amount;\r\n\r\n        emit Transfer({\r\n            from: _from,\r\n            to: address(0),\r\n            value: _amount\r\n        });\r\n    } \r\n\r\n    function supportsInterface(bytes4 _interfaceId) external pure returns(bool) {\r\n        return _interfaceId == type(IERC20).interfaceId || _interfaceId == type(IERC20Metadata).interfaceId;\r\n    }\r\n}\r\n\r\ncontract Token is ERC20 {\r\n    address private owner;\r\n\r\n    constructor(\r\n        string memory tokenName,\r\n        string memory tokenSymbol,\r\n        uint8 tokenDecimals,\r\n        uint tokenTotalSupply\r\n    ) ERC20(\r\n        tokenName,\r\n        tokenSymbol,\r\n        tokenDecimals,\r\n        tokenTotalSupply\r\n    ) {\r\n        owner = msg.sender;\r\n    }\r\n\r\n    modifier onlyOwner() {\r\n        require(msg.sender == owner, \"Only owner\");\r\n        _;\r\n    }\r\n\r\n    function mint(address _to, uint _amount) external onlyOwner returns(bool) {\r\n        _mint(_to, _amount);\r\n\r\n        return true;\r\n    }\r\n\r\n    function burn(uint _amount) external onlyOwner returns(bool) {\r\n        _burn(msg.sender, _amount);\r\n\r\n        return true;\r\n    }\r\n\r\n    function changeOwner(address _newOwner) external onlyOwner {\r\n        owner = _newOwner;\r\n    }\r\n\r\n    function getOwner() external view returns(address) {\r\n        return owner;\r\n    }\r\n}\r\n\r\ncontract WETH is ERC20(\"Wrapped Ether\", \"WETH\", 18, 0) {\r\n    bool locked;\r\n    modifier nonReentrant() {\r\n        require(locked == false, \"locked!\");\r\n        locked = true;\r\n        _;\r\n        locked = false;\r\n    }\r\n\r\n    function deposit() external payable returns(bool) {\r\n        _mint(msg.sender, msg.value);\r\n\r\n        return true;\r\n    }\r\n\r\n    function withdraw(uint _ether) external payable nonReentrant returns(bool) {\r\n        address msgSender = msg.sender;\r\n        require(balances[msgSender] >= _ether, \"Insufficient weth balance\");\r\n\r\n        _burn(msgSender, _ether);\r\n\r\n        payable(msgSender).transfer(_ether);\r\n\r\n        return true;\r\n    }\r\n}",
  "sourcePath": "C:\\Users\\PooriaGg\\Desktop\\Project-OpenSea\\Marketplace_Test\\Implementation_V1_Test\\contracts\\ERC20.sol",
  "compiler": {
    "name": "solc",
    "version": "0.8.17+commit.8df45f5f.Emscripten.clang"
  },
  "schemaVersion": "3.4.11",
  "updatedAt": "2023-01-12T13:10:50.977Z",
  "devdoc": {
    "kind": "dev",
    "methods": {},
    "version": 1
  },
  "userdoc": {
    "kind": "user",
    "methods": {},
    "version": 1
  }
}